{
  "address": "0xA11937C76F8569fC47fe2D7d3EB80288812Ef380",
  "abi": [
    {
      "inputs": [
        {
          "internalType": "string",
          "name": "_baseURI",
          "type": "string"
        },
        {
          "internalType": "address",
          "name": "_layerZeroEndpoint",
          "type": "address"
        },
        {
          "internalType": "uint256",
          "name": "_startMintId",
          "type": "uint256"
        },
        {
          "internalType": "uint256",
          "name": "_endMintId",
          "type": "uint256"
        },
        {
          "internalType": "address",
          "name": "_usdcAddress",
          "type": "address"
        },
        {
          "internalType": "address",
          "name": "_pozAdderss",
          "type": "address"
        },
        {
          "internalType": "address",
          "name": "_treasuryAddress",
          "type": "address"
        }
      ],
      "stateMutability": "nonpayable",
      "type": "constructor"
    },
    {
      "anonymous": false,
      "inputs": [
        {
          "indexed": true,
          "internalType": "address",
          "name": "owner",
          "type": "address"
        },
        {
          "indexed": true,
          "internalType": "address",
          "name": "approved",
          "type": "address"
        },
        {
          "indexed": true,
          "internalType": "uint256",
          "name": "tokenId",
          "type": "uint256"
        }
      ],
      "name": "Approval",
      "type": "event"
    },
    {
      "anonymous": false,
      "inputs": [
        {
          "indexed": true,
          "internalType": "address",
          "name": "owner",
          "type": "address"
        },
        {
          "indexed": true,
          "internalType": "address",
          "name": "operator",
          "type": "address"
        },
        {
          "indexed": false,
          "internalType": "bool",
          "name": "approved",
          "type": "bool"
        }
      ],
      "name": "ApprovalForAll",
      "type": "event"
    },
    {
      "anonymous": false,
      "inputs": [
        {
          "indexed": false,
          "internalType": "uint16",
          "name": "_srcChainId",
          "type": "uint16"
        },
        {
          "indexed": false,
          "internalType": "bytes",
          "name": "_srcAddress",
          "type": "bytes"
        },
        {
          "indexed": false,
          "internalType": "uint64",
          "name": "_nonce",
          "type": "uint64"
        },
        {
          "indexed": false,
          "internalType": "bytes",
          "name": "_payload",
          "type": "bytes"
        }
      ],
      "name": "MessageFailed",
      "type": "event"
    },
    {
      "anonymous": false,
      "inputs": [
        {
          "indexed": true,
          "internalType": "address",
          "name": "previousOwner",
          "type": "address"
        },
        {
          "indexed": true,
          "internalType": "address",
          "name": "newOwner",
          "type": "address"
        }
      ],
      "name": "OwnershipTransferred",
      "type": "event"
    },
    {
      "anonymous": false,
      "inputs": [
        {
          "indexed": true,
          "internalType": "uint16",
          "name": "_srcChainId",
          "type": "uint16"
        },
        {
          "indexed": true,
          "internalType": "bytes",
          "name": "_srcAddress",
          "type": "bytes"
        },
        {
          "indexed": true,
          "internalType": "address",
          "name": "_toAddress",
          "type": "address"
        },
        {
          "indexed": false,
          "internalType": "uint256",
          "name": "_tokenId",
          "type": "uint256"
        },
        {
          "indexed": false,
          "internalType": "uint64",
          "name": "_nonce",
          "type": "uint64"
        }
      ],
      "name": "ReceiveFromChain",
      "type": "event"
    },
    {
      "anonymous": false,
      "inputs": [
        {
          "indexed": true,
          "internalType": "address",
          "name": "_sender",
          "type": "address"
        },
        {
          "indexed": true,
          "internalType": "uint16",
          "name": "_dstChainId",
          "type": "uint16"
        },
        {
          "indexed": true,
          "internalType": "bytes",
          "name": "_toAddress",
          "type": "bytes"
        },
        {
          "indexed": false,
          "internalType": "uint256",
          "name": "_tokenId",
          "type": "uint256"
        },
        {
          "indexed": false,
          "internalType": "uint64",
          "name": "_nonce",
          "type": "uint64"
        }
      ],
      "name": "SendToChain",
      "type": "event"
    },
    {
      "anonymous": false,
      "inputs": [
        {
          "indexed": false,
          "internalType": "uint16",
          "name": "_srcChainId",
          "type": "uint16"
        },
        {
          "indexed": false,
          "internalType": "bytes",
          "name": "_srcAddress",
          "type": "bytes"
        }
      ],
      "name": "SetTrustedRemote",
      "type": "event"
    },
    {
      "anonymous": false,
      "inputs": [
        {
          "indexed": true,
          "internalType": "address",
          "name": "from",
          "type": "address"
        },
        {
          "indexed": true,
          "internalType": "address",
          "name": "to",
          "type": "address"
        },
        {
          "indexed": true,
          "internalType": "uint256",
          "name": "tokenId",
          "type": "uint256"
        }
      ],
      "name": "Transfer",
      "type": "event"
    },
    {
      "inputs": [
        {
          "internalType": "address",
          "name": "to",
          "type": "address"
        },
        {
          "internalType": "uint256",
          "name": "tokenId",
          "type": "uint256"
        }
      ],
      "name": "approve",
      "outputs": [],
      "stateMutability": "nonpayable",
      "type": "function"
    },
    {
      "inputs": [
        {
          "internalType": "address",
          "name": "owner",
          "type": "address"
        }
      ],
      "name": "balanceOf",
      "outputs": [
        {
          "internalType": "uint256",
          "name": "",
          "type": "uint256"
        }
      ],
      "stateMutability": "view",
      "type": "function"
    },
    {
      "inputs": [
        {
          "internalType": "address",
          "name": "",
          "type": "address"
        }
      ],
      "name": "countMinted",
      "outputs": [
        {
          "internalType": "uint256",
          "name": "",
          "type": "uint256"
        }
      ],
      "stateMutability": "view",
      "type": "function"
    },
    {
      "inputs": [],
      "name": "currentURI",
      "outputs": [
        {
          "internalType": "string",
          "name": "",
          "type": "string"
        }
      ],
      "stateMutability": "view",
      "type": "function"
    },
    {
      "inputs": [
        {
          "internalType": "uint16",
          "name": "_dstChainId",
          "type": "uint16"
        },
        {
          "internalType": "bytes",
          "name": "_toAddress",
          "type": "bytes"
        },
        {
          "internalType": "uint256",
          "name": "_tokenId",
          "type": "uint256"
        },
        {
          "internalType": "bool",
          "name": "_useZro",
          "type": "bool"
        },
        {
          "internalType": "bytes",
          "name": "_adapterParams",
          "type": "bytes"
        }
      ],
      "name": "estimateSendFee",
      "outputs": [
        {
          "internalType": "uint256",
          "name": "nativeFee",
          "type": "uint256"
        },
        {
          "internalType": "uint256",
          "name": "zroFee",
          "type": "uint256"
        }
      ],
      "stateMutability": "view",
      "type": "function"
    },
    {
      "inputs": [
        {
          "internalType": "uint16",
          "name": "",
          "type": "uint16"
        },
        {
          "internalType": "bytes",
          "name": "",
          "type": "bytes"
        },
        {
          "internalType": "uint64",
          "name": "",
          "type": "uint64"
        }
      ],
      "name": "failedMessages",
      "outputs": [
        {
          "internalType": "bytes32",
          "name": "",
          "type": "bytes32"
        }
      ],
      "stateMutability": "view",
      "type": "function"
    },
    {
      "inputs": [],
      "name": "flMerkleRoot",
      "outputs": [
        {
          "internalType": "bytes32",
          "name": "",
          "type": "bytes32"
        }
      ],
      "stateMutability": "view",
      "type": "function"
    },
    {
      "inputs": [
        {
          "internalType": "uint16",
          "name": "_srcChainId",
          "type": "uint16"
        },
        {
          "internalType": "bytes",
          "name": "_srcAddress",
          "type": "bytes"
        }
      ],
      "name": "forceResumeReceive",
      "outputs": [],
      "stateMutability": "nonpayable",
      "type": "function"
    },
    {
      "inputs": [
        {
          "internalType": "bytes32[]",
          "name": "_merkleProof",
          "type": "bytes32[]"
        }
      ],
      "name": "freeListMint",
      "outputs": [
        {
          "internalType": "uint256",
          "name": "",
          "type": "uint256"
        }
      ],
      "stateMutability": "payable",
      "type": "function"
    },
    {
      "inputs": [
        {
          "internalType": "uint256",
          "name": "tokenId",
          "type": "uint256"
        }
      ],
      "name": "getApproved",
      "outputs": [
        {
          "internalType": "address",
          "name": "",
          "type": "address"
        }
      ],
      "stateMutability": "view",
      "type": "function"
    },
    {
      "inputs": [
        {
          "internalType": "uint16",
          "name": "_version",
          "type": "uint16"
        },
        {
          "internalType": "uint16",
          "name": "_chainId",
          "type": "uint16"
        },
        {
          "internalType": "address",
          "name": "",
          "type": "address"
        },
        {
          "internalType": "uint256",
          "name": "_configType",
          "type": "uint256"
        }
      ],
      "name": "getConfig",
      "outputs": [
        {
          "internalType": "bytes",
          "name": "",
          "type": "bytes"
        }
      ],
      "stateMutability": "view",
      "type": "function"
    },
    {
      "inputs": [],
      "name": "glMerkleRoot",
      "outputs": [
        {
          "internalType": "bytes32",
          "name": "",
          "type": "bytes32"
        }
      ],
      "stateMutability": "view",
      "type": "function"
    },
    {
      "inputs": [
        {
          "internalType": "bytes32[]",
          "name": "_merkleProof",
          "type": "bytes32[]"
        }
      ],
      "name": "greenListMint",
      "outputs": [
        {
          "internalType": "uint256",
          "name": "",
          "type": "uint256"
        }
      ],
      "stateMutability": "payable",
      "type": "function"
    },
    {
      "inputs": [],
      "name": "greenPrice",
      "outputs": [
        {
          "internalType": "uint256",
          "name": "",
          "type": "uint256"
        }
      ],
      "stateMutability": "view",
      "type": "function"
    },
    {
      "inputs": [],
      "name": "initPoz",
      "outputs": [
        {
          "internalType": "uint256",
          "name": "",
          "type": "uint256"
        }
      ],
      "stateMutability": "view",
      "type": "function"
    },
    {
      "inputs": [
        {
          "internalType": "address",
          "name": "owner",
          "type": "address"
        },
        {
          "internalType": "address",
          "name": "operator",
          "type": "address"
        }
      ],
      "name": "isApprovedForAll",
      "outputs": [
        {
          "internalType": "bool",
          "name": "",
          "type": "bool"
        }
      ],
      "stateMutability": "view",
      "type": "function"
    },
    {
      "inputs": [
        {
          "internalType": "address",
          "name": "",
          "type": "address"
        }
      ],
      "name": "isFLClaimed",
      "outputs": [
        {
          "internalType": "bool",
          "name": "",
          "type": "bool"
        }
      ],
      "stateMutability": "view",
      "type": "function"
    },
    {
      "inputs": [
        {
          "internalType": "bytes32[]",
          "name": "_merkleProof",
          "type": "bytes32[]"
        }
      ],
      "name": "isFListed",
      "outputs": [
        {
          "internalType": "bool",
          "name": "",
          "type": "bool"
        }
      ],
      "stateMutability": "view",
      "type": "function"
    },
    {
      "inputs": [
        {
          "internalType": "address",
          "name": "",
          "type": "address"
        }
      ],
      "name": "isGLClaimed",
      "outputs": [
        {
          "internalType": "bool",
          "name": "",
          "type": "bool"
        }
      ],
      "stateMutability": "view",
      "type": "function"
    },
    {
      "inputs": [
        {
          "internalType": "bytes32[]",
          "name": "_merkleProof",
          "type": "bytes32[]"
        }
      ],
      "name": "isGListed",
      "outputs": [
        {
          "internalType": "bool",
          "name": "",
          "type": "bool"
        }
      ],
      "stateMutability": "view",
      "type": "function"
    },
    {
      "inputs": [],
      "name": "isPaused",
      "outputs": [
        {
          "internalType": "bool",
          "name": "",
          "type": "bool"
        }
      ],
      "stateMutability": "view",
      "type": "function"
    },
    {
      "inputs": [
        {
          "internalType": "uint16",
          "name": "_srcChainId",
          "type": "uint16"
        },
        {
          "internalType": "bytes",
          "name": "_srcAddress",
          "type": "bytes"
        }
      ],
      "name": "isTrustedRemote",
      "outputs": [
        {
          "internalType": "bool",
          "name": "",
          "type": "bool"
        }
      ],
      "stateMutability": "view",
      "type": "function"
    },
    {
      "inputs": [],
      "name": "lzEndpoint",
      "outputs": [
        {
          "internalType": "contract ILayerZeroEndpoint",
          "name": "",
          "type": "address"
        }
      ],
      "stateMutability": "view",
      "type": "function"
    },
    {
      "inputs": [
        {
          "internalType": "uint16",
          "name": "_srcChainId",
          "type": "uint16"
        },
        {
          "internalType": "bytes",
          "name": "_srcAddress",
          "type": "bytes"
        },
        {
          "internalType": "uint64",
          "name": "_nonce",
          "type": "uint64"
        },
        {
          "internalType": "bytes",
          "name": "_payload",
          "type": "bytes"
        }
      ],
      "name": "lzReceive",
      "outputs": [],
      "stateMutability": "nonpayable",
      "type": "function"
    },
    {
      "inputs": [],
      "name": "maxMintId",
      "outputs": [
        {
          "internalType": "uint256",
          "name": "",
          "type": "uint256"
        }
      ],
      "stateMutability": "view",
      "type": "function"
    },
    {
      "inputs": [],
      "name": "name",
      "outputs": [
        {
          "internalType": "string",
          "name": "",
          "type": "string"
        }
      ],
      "stateMutability": "view",
      "type": "function"
    },
    {
      "inputs": [],
      "name": "nextMintId",
      "outputs": [
        {
          "internalType": "uint256",
          "name": "",
          "type": "uint256"
        }
      ],
      "stateMutability": "view",
      "type": "function"
    },
    {
      "inputs": [
        {
          "internalType": "uint16",
          "name": "_srcChainId",
          "type": "uint16"
        },
        {
          "internalType": "bytes",
          "name": "_srcAddress",
          "type": "bytes"
        },
        {
          "internalType": "uint64",
          "name": "_nonce",
          "type": "uint64"
        },
        {
          "internalType": "bytes",
          "name": "_payload",
          "type": "bytes"
        }
      ],
      "name": "nonblockingLzReceive",
      "outputs": [],
      "stateMutability": "nonpayable",
      "type": "function"
    },
    {
      "inputs": [],
      "name": "owner",
      "outputs": [
        {
          "internalType": "address",
          "name": "",
          "type": "address"
        }
      ],
      "stateMutability": "view",
      "type": "function"
    },
    {
      "inputs": [
        {
          "internalType": "uint256",
          "name": "tokenId",
          "type": "uint256"
        }
      ],
      "name": "ownerOf",
      "outputs": [
        {
          "internalType": "address",
          "name": "",
          "type": "address"
        }
      ],
      "stateMutability": "view",
      "type": "function"
    },
    {
      "inputs": [],
      "name": "publicDate",
      "outputs": [
        {
          "internalType": "uint256",
          "name": "",
          "type": "uint256"
        }
      ],
      "stateMutability": "view",
      "type": "function"
    },
    {
      "inputs": [
        {
          "internalType": "uint256",
          "name": "_mintCount",
          "type": "uint256"
        }
      ],
      "name": "publicMint",
      "outputs": [
        {
          "internalType": "uint256",
          "name": "",
          "type": "uint256"
        }
      ],
      "stateMutability": "payable",
      "type": "function"
    },
    {
      "inputs": [],
      "name": "publicPrice",
      "outputs": [
        {
          "internalType": "uint256",
          "name": "",
          "type": "uint256"
        }
      ],
      "stateMutability": "view",
      "type": "function"
    },
    {
      "inputs": [],
      "name": "renounceOwnership",
      "outputs": [],
      "stateMutability": "nonpayable",
      "type": "function"
    },
    {
      "inputs": [
        {
          "internalType": "uint16",
          "name": "_srcChainId",
          "type": "uint16"
        },
        {
          "internalType": "bytes",
          "name": "_srcAddress",
          "type": "bytes"
        },
        {
          "internalType": "uint64",
          "name": "_nonce",
          "type": "uint64"
        },
        {
          "internalType": "bytes",
          "name": "_payload",
          "type": "bytes"
        }
      ],
      "name": "retryMessage",
      "outputs": [],
      "stateMutability": "payable",
      "type": "function"
    },
    {
      "inputs": [
        {
          "internalType": "address",
          "name": "from",
          "type": "address"
        },
        {
          "internalType": "address",
          "name": "to",
          "type": "address"
        },
        {
          "internalType": "uint256",
          "name": "tokenId",
          "type": "uint256"
        }
      ],
      "name": "safeTransferFrom",
      "outputs": [],
      "stateMutability": "nonpayable",
      "type": "function"
    },
    {
      "inputs": [
        {
          "internalType": "address",
          "name": "from",
          "type": "address"
        },
        {
          "internalType": "address",
          "name": "to",
          "type": "address"
        },
        {
          "internalType": "uint256",
          "name": "tokenId",
          "type": "uint256"
        },
        {
          "internalType": "bytes",
          "name": "_data",
          "type": "bytes"
        }
      ],
      "name": "safeTransferFrom",
      "outputs": [],
      "stateMutability": "nonpayable",
      "type": "function"
    },
    {
      "inputs": [
        {
          "internalType": "address",
          "name": "_from",
          "type": "address"
        },
        {
          "internalType": "uint16",
          "name": "_dstChainId",
          "type": "uint16"
        },
        {
          "internalType": "bytes",
          "name": "_toAddress",
          "type": "bytes"
        },
        {
          "internalType": "uint256",
          "name": "_tokenId",
          "type": "uint256"
        },
        {
          "internalType": "address payable",
          "name": "_refundAddress",
          "type": "address"
        },
        {
          "internalType": "address",
          "name": "_zroPaymentAddress",
          "type": "address"
        },
        {
          "internalType": "bytes",
          "name": "_adapterParams",
          "type": "bytes"
        }
      ],
      "name": "sendFrom",
      "outputs": [],
      "stateMutability": "payable",
      "type": "function"
    },
    {
      "inputs": [
        {
          "internalType": "address",
          "name": "operator",
          "type": "address"
        },
        {
          "internalType": "bool",
          "name": "approved",
          "type": "bool"
        }
      ],
      "name": "setApprovalForAll",
      "outputs": [],
      "stateMutability": "nonpayable",
      "type": "function"
    },
    {
      "inputs": [
        {
          "internalType": "uint16",
          "name": "_version",
          "type": "uint16"
        },
        {
          "internalType": "uint16",
          "name": "_chainId",
          "type": "uint16"
        },
        {
          "internalType": "uint256",
          "name": "_configType",
          "type": "uint256"
        },
        {
          "internalType": "bytes",
          "name": "_config",
          "type": "bytes"
        }
      ],
      "name": "setConfig",
      "outputs": [],
      "stateMutability": "nonpayable",
      "type": "function"
    },
    {
      "inputs": [
        {
          "internalType": "address",
          "name": "_sender",
          "type": "address"
        },
        {
          "internalType": "uint256",
          "name": "_count",
          "type": "uint256"
        }
      ],
      "name": "setCountMinted",
      "outputs": [],
      "stateMutability": "nonpayable",
      "type": "function"
    },
    {
      "inputs": [
        {
          "internalType": "string",
          "name": "_currentURI",
          "type": "string"
        }
      ],
      "name": "setCurrentURI",
      "outputs": [],
      "stateMutability": "nonpayable",
      "type": "function"
    },
    {
      "inputs": [
        {
          "internalType": "address",
          "name": "_sender",
          "type": "address"
        },
        {
          "internalType": "bool",
          "name": "_isClamed",
          "type": "bool"
        }
      ],
      "name": "setFLClaimed",
      "outputs": [],
      "stateMutability": "nonpayable",
      "type": "function"
    },
    {
      "inputs": [
        {
          "internalType": "bytes32",
          "name": "_merkleRoot",
          "type": "bytes32"
        }
      ],
      "name": "setFLMerkleRoot",
      "outputs": [],
      "stateMutability": "nonpayable",
      "type": "function"
    },
    {
      "inputs": [
        {
          "internalType": "address",
          "name": "_sender",
          "type": "address"
        },
        {
          "internalType": "bool",
          "name": "_isClamed",
          "type": "bool"
        }
      ],
      "name": "setGLClaimed",
      "outputs": [],
      "stateMutability": "nonpayable",
      "type": "function"
    },
    {
      "inputs": [
        {
          "internalType": "bytes32",
          "name": "_merkleRoot",
          "type": "bytes32"
        }
      ],
      "name": "setGLMerkleRoot",
      "outputs": [],
      "stateMutability": "nonpayable",
      "type": "function"
    },
    {
      "inputs": [
        {
          "internalType": "uint256",
          "name": "_publicPrice",
          "type": "uint256"
        },
        {
          "internalType": "uint256",
          "name": "_greenPrice",
          "type": "uint256"
        }
      ],
      "name": "setMintPrice",
      "outputs": [],
      "stateMutability": "nonpayable",
      "type": "function"
    },
    {
      "inputs": [
        {
          "internalType": "bool",
          "name": "_isPaused",
          "type": "bool"
        }
      ],
      "name": "setPaused",
      "outputs": [],
      "stateMutability": "nonpayable",
      "type": "function"
    },
    {
      "inputs": [
        {
          "internalType": "address",
          "name": "_newAddress",
          "type": "address"
        }
      ],
      "name": "setPozToken",
      "outputs": [],
      "stateMutability": "nonpayable",
      "type": "function"
    },
    {
      "inputs": [
        {
          "internalType": "uint256",
          "name": "_publicDate",
          "type": "uint256"
        }
      ],
      "name": "setPublicDate",
      "outputs": [],
      "stateMutability": "nonpayable",
      "type": "function"
    },
    {
      "inputs": [
        {
          "internalType": "uint16",
          "name": "_version",
          "type": "uint16"
        }
      ],
      "name": "setReceiveVersion",
      "outputs": [],
      "stateMutability": "nonpayable",
      "type": "function"
    },
    {
      "inputs": [
        {
          "internalType": "uint16",
          "name": "_version",
          "type": "uint16"
        }
      ],
      "name": "setSendVersion",
      "outputs": [],
      "stateMutability": "nonpayable",
      "type": "function"
    },
    {
      "inputs": [
        {
          "internalType": "uint256",
          "name": "_startMintId",
          "type": "uint256"
        },
        {
          "internalType": "uint256",
          "name": "_maxMintId",
          "type": "uint256"
        },
        {
          "internalType": "string",
          "name": "_newURI",
          "type": "string"
        }
      ],
      "name": "setSpecialPack",
      "outputs": [],
      "stateMutability": "nonpayable",
      "type": "function"
    },
    {
      "inputs": [
        {
          "internalType": "address",
          "name": "treasure",
          "type": "address"
        }
      ],
      "name": "setTreasuryWallet",
      "outputs": [],
      "stateMutability": "nonpayable",
      "type": "function"
    },
    {
      "inputs": [
        {
          "internalType": "uint16",
          "name": "_srcChainId",
          "type": "uint16"
        },
        {
          "internalType": "bytes",
          "name": "_srcAddress",
          "type": "bytes"
        }
      ],
      "name": "setTrustedRemote",
      "outputs": [],
      "stateMutability": "nonpayable",
      "type": "function"
    },
    {
      "inputs": [
        {
          "internalType": "address",
          "name": "_newAddress",
          "type": "address"
        }
      ],
      "name": "setUSDCToken",
      "outputs": [],
      "stateMutability": "nonpayable",
      "type": "function"
    },
    {
      "inputs": [
        {
          "internalType": "bytes4",
          "name": "interfaceId",
          "type": "bytes4"
        }
      ],
      "name": "supportsInterface",
      "outputs": [
        {
          "internalType": "bool",
          "name": "",
          "type": "bool"
        }
      ],
      "stateMutability": "view",
      "type": "function"
    },
    {
      "inputs": [],
      "name": "symbol",
      "outputs": [
        {
          "internalType": "string",
          "name": "",
          "type": "string"
        }
      ],
      "stateMutability": "view",
      "type": "function"
    },
    {
      "inputs": [
        {
          "internalType": "uint256",
          "name": "",
          "type": "uint256"
        }
      ],
      "name": "tokenBalance",
      "outputs": [
        {
          "internalType": "uint256",
          "name": "",
          "type": "uint256"
        }
      ],
      "stateMutability": "view",
      "type": "function"
    },
    {
      "inputs": [
        {
          "internalType": "uint256",
          "name": "tokenId",
          "type": "uint256"
        }
      ],
      "name": "tokenURI",
      "outputs": [
        {
          "internalType": "string",
          "name": "",
          "type": "string"
        }
      ],
      "stateMutability": "view",
      "type": "function"
    },
    {
      "inputs": [
        {
          "internalType": "uint256",
          "name": "",
          "type": "uint256"
        }
      ],
      "name": "tokenURIs",
      "outputs": [
        {
          "internalType": "string",
          "name": "",
          "type": "string"
        }
      ],
      "stateMutability": "view",
      "type": "function"
    },
    {
      "inputs": [
        {
          "internalType": "address",
          "name": "from",
          "type": "address"
        },
        {
          "internalType": "address",
          "name": "to",
          "type": "address"
        },
        {
          "internalType": "uint256",
          "name": "tokenId",
          "type": "uint256"
        }
      ],
      "name": "transferFrom",
      "outputs": [],
      "stateMutability": "nonpayable",
      "type": "function"
    },
    {
      "inputs": [
        {
          "internalType": "address",
          "name": "newOwner",
          "type": "address"
        }
      ],
      "name": "transferOwnership",
      "outputs": [],
      "stateMutability": "nonpayable",
      "type": "function"
    },
    {
      "inputs": [],
      "name": "treasuryWallet",
      "outputs": [
        {
          "internalType": "address",
          "name": "",
          "type": "address"
        }
      ],
      "stateMutability": "view",
      "type": "function"
    },
    {
      "inputs": [
        {
          "internalType": "uint16",
          "name": "",
          "type": "uint16"
        }
      ],
      "name": "trustedRemoteLookup",
      "outputs": [
        {
          "internalType": "bytes",
          "name": "",
          "type": "bytes"
        }
      ],
      "stateMutability": "view",
      "type": "function"
    },
    {
      "inputs": [
        {
          "internalType": "uint256",
          "name": "_tokenId",
          "type": "uint256"
        }
      ],
      "name": "withdrawPoz",
      "outputs": [],
      "stateMutability": "nonpayable",
      "type": "function"
    },
    {
      "inputs": [],
      "name": "withdrawPozByOwner",
      "outputs": [],
      "stateMutability": "nonpayable",
      "type": "function"
    },
    {
      "inputs": [
        {
          "internalType": "uint256",
          "name": "",
          "type": "uint256"
        }
      ],
      "name": "withdrawTimes",
      "outputs": [
        {
          "internalType": "uint256",
          "name": "",
          "type": "uint256"
        }
      ],
      "stateMutability": "view",
      "type": "function"
    }
  ],
  "transactionHash": "0xcfcf9ec38bcf0791b54f893e34fc66713e2f2ec989a0790cae8eccb38e5f0277",
  "args": [
    "https://ipfs.io/ipfs/QmdAt3y9HTWjxCFMUXRyUCA1F26XHVHEr1jfiHyxhBEULV/",
    "0x3c2269811836af69497E5F486A85D7316753cf62",
    1222,
    1421,
    "0x2791Bca1f2de4661ED88A30C99A7a9449Aa84174",
    "0x701fD77F1B00547BE745957Ddf1cc92F9D088B6B",
    "0xB47c0b6F79976b6c8E871a41ce5402428e89D786"
  ],
  "numDeployments": 1,
  "solcInputHash": "950a64fcf7744a1ff314e1af8efd9ee1",
  "bytecode": "0x60a060405260c7600d556096600e55603c600f55426010556012805460ff191690553480156200002e57600080fd5b5060405162005462380380620054628339810160408190526200005191620003ba565b6040518060400160405280600b81526020016a506f7a7a6c656e6175747360a81b81525060405180604001604052806006815260200165141bde93919560d21b815250888888888888888888878282828080620000bd620000b76200016160201b60201c565b62000165565b60601b6001600160601b03191660805250508151620000e4906003906020850190620002f7565b508051620000fa906004906020840190620002f7565b50506001600a55505050600b86905550600c849055601d80546001600160a01b0319166001600160a01b0383161790556200013587620001b5565b62000140826200021d565b6200014b836200028a565b5050505050505050505050505050505062000543565b3390565b600080546001600160a01b038381166001600160a01b0319831681178455604051919092169283917f8be0079c531659141344cd1fd0a4f28419497f9722a3daafe3b4186f6b6457e09190a35050565b6000546001600160a01b03163314620002045760405162461bcd60e51b815260206004820181905260248201526000805160206200544283398151915260448201526064015b60405180910390fd5b805162000219906011906020840190620002f7565b5050565b6000546001600160a01b03163314620002685760405162461bcd60e51b81526020600482018190526024820152600080516020620054428339815191526044820152606401620001fb565b601c80546001600160a01b0319166001600160a01b0392909216919091179055565b6000546001600160a01b03163314620002d55760405162461bcd60e51b81526020600482018190526024820152600080516020620054428339815191526044820152606401620001fb565b601b80546001600160a01b0319166001600160a01b0392909216919091179055565b8280546200030590620004f0565b90600052602060002090601f01602090048101928262000329576000855562000374565b82601f106200034457805160ff191683800117855562000374565b8280016001018555821562000374579182015b828111156200037457825182559160200191906001019062000357565b506200038292915062000386565b5090565b5b8082111562000382576000815560010162000387565b80516001600160a01b0381168114620003b557600080fd5b919050565b600080600080600080600060e0888a031215620003d5578283fd5b87516001600160401b0380821115620003ec578485fd5b818a0191508a601f83011262000400578485fd5b8151818111156200041557620004156200052d565b604051601f8201601f19908116603f011681019083821181831017156200044057620004406200052d565b81604052828152602093508d848487010111156200045c578788fd5b8791505b828210156200047f578482018401518183018501529083019062000460565b828211156200049057878484830101525b9a50620004a29150508a82016200039d565b975050506040880151945060608801519350620004c2608089016200039d565b9250620004d260a089016200039d565b9150620004e260c089016200039d565b905092959891949750929550565b600181811c908216806200050557607f821691505b602082108114156200052757634e487b7160e01b600052602260045260246000fd5b50919050565b634e487b7160e01b600052604160045260246000fd5b60805160601c614ea1620005a160003960008181610a4101528181610cb801528181610f890152818161124f015281816113b2015281816116b601528181611d8a0152818161297f0152818161319d01526139930152614ea16000f3fe6080604052600436106103ee5760003560e01c80637533d78811610208578063bd89cc7111610118578063e1d4c870116100ab578063eb8d72b71161007a578063eb8d72b714610c2d578063f2fde38b14610c4d578063f36bc30d14610c6d578063f5ecbdbc14610c80578063fb0bc9d714610ca057600080fd5b8063e1d4c87014610b8e578063e67cf48214610ba4578063e985e9c514610bc4578063ea9d6d2914610c0d57600080fd5b8063d1deba1f116100e7578063d1deba1f14610b33578063d5aaffe314610b46578063d721161214610b66578063dd68832314610b7b57600080fd5b8063bd89cc7114610aa3578063c32e00fe14610ad3578063c87b56dd14610af3578063cbed8b9c14610b1357600080fd5b8063a80d71bb1161019b578063ac4976a11161016a578063ac4976a1146109f5578063b187bd2614610a15578063b353aaa714610a2f578063b473171614610a63578063b88d4fde14610a8357600080fd5b8063a80d71bb14610979578063a8602fea1461098f578063a945bf80146109af578063a966fa33146109c557600080fd5b80638da5cb5b116101d75780638da5cb5b146109065780639511e65c1461092457806395d89b4114610944578063a22cb4651461095957600080fd5b80637533d7881461088357806378624f09146108a35780637e10ab0d146108b957806387b8ff27146108e657600080fd5b806342842e0e1161030357806357a736091161029657806366ad5c8a1161026557806366ad5c8a146107f85780636aa99da3146108185780636c8b703f1461082e57806370a082311461084e578063715018a61461086e57600080fd5b806357a73609146107465780635b8c41e6146107735780636352211e146107c257806363b468ce146107e257600080fd5b806349afc6e5116102d257806349afc6e5146106da57806351463d5b14610707578063519056361461071d57806351d982b41461073057600080fd5b806342842e0e1461065a57806342d65a8d1461067a578063450a32921461069a5780634626402b146106ba57600080fd5b80630f78a4d511610386578063197e6cf011610355578063197e6cf0146105a457806323b872dd146105c45780632a205e3d146105e45780632db11544146106195780633d8b38f61461063a57600080fd5b80630f78a4d51461052457806310ddb13714610544578063115763311461056457806316c38b3c1461058457600080fd5b806307e0db17116103c257806307e0db171461048c578063081812fc146104ac578063095ea7b3146104e45780630f5a9d011461050457600080fd5b80621d3567146103f357806301ffc9a7146104155780630442bfa81461044a57806306fdde031461046a575b600080fd5b3480156103ff57600080fd5b5061041361040e366004614516565b610cb5565b005b34801561042157600080fd5b506104356104303660046142de565b610e5c565b60405190151581526020015b60405180910390f35b34801561045657600080fd5b5061041361046536600461465f565b610e7f565b34801561047657600080fd5b5061047f610eb4565b60405161044191906148f0565b34801561049857600080fd5b506104136104a73660046143be565b610f46565b3480156104b857600080fd5b506104cc6104c73660046142c6565b610fea565b6040516001600160a01b039091168152602001610441565b3480156104f057600080fd5b506104136104ff3660046141f4565b611072565b34801561051057600080fd5b5061041361051f366004614014565b611188565b34801561053057600080fd5b5061041361053f366004614111565b6111d4565b34801561055057600080fd5b5061041361055f3660046143be565b61120c565b34801561057057600080fd5b5061041361057f366004614014565b611286565b34801561059057600080fd5b5061041361059f36600461428e565b6112d2565b3480156105b057600080fd5b506104136105bf3660046142c6565b611312565b3480156105d057600080fd5b506104136105df366004614068565b611341565b3480156105f057600080fd5b506106046105ff366004614428565b611373565b60408051928352602083019190915201610441565b61062c6106273660046142c6565b61144d565b604051908152602001610441565b34801561064657600080fd5b506104356106553660046143d8565b61158e565b34801561066657600080fd5b50610413610675366004614068565b61165a565b34801561068657600080fd5b506104136106953660046143d8565b611675565b3480156106a657600080fd5b506104136106b53660046146a3565b611726565b3480156106c657600080fd5b50601d546104cc906001600160a01b031681565b3480156106e657600080fd5b5061062c6106f53660046142c6565b60166020526000908152604090205481565b34801561071357600080fd5b5061062c60105481565b61041361072b36600461413e565b61177d565b34801561073c57600080fd5b5061062c600e5481565b34801561075257600080fd5b5061062c6107613660046142c6565b60176020526000908152604090205481565b34801561077f57600080fd5b5061062c61078e3660046144b7565b6002602090815260009384526040808520845180860184018051928152908401958401959095209452929052825290205481565b3480156107ce57600080fd5b506104cc6107dd3660046142c6565b61178c565b3480156107ee57600080fd5b5061062c60195481565b34801561080457600080fd5b50610413610813366004614516565b611803565b34801561082457600080fd5b5061062c600b5481565b34801561083a57600080fd5b5061047f6108493660046142c6565b611873565b34801561085a57600080fd5b5061062c610869366004614014565b61190d565b34801561087a57600080fd5b50610413611994565b34801561088f57600080fd5b5061047f61089e3660046143be565b6119ca565b3480156108af57600080fd5b5061062c601a5481565b3480156108c557600080fd5b5061062c6108d4366004614014565b60136020526000908152604090205481565b3480156108f257600080fd5b50610413610901366004614111565b6119e3565b34801561091257600080fd5b506000546001600160a01b03166104cc565b34801561093057600080fd5b5061041361093f3660046141f4565b611a17565b34801561095057600080fd5b5061047f611a5e565b34801561096557600080fd5b50610413610974366004614111565b611a6d565b34801561098557600080fd5b5061062c600f5481565b34801561099b57600080fd5b506104136109aa366004614014565b611a78565b3480156109bb57600080fd5b5061062c600d5481565b3480156109d157600080fd5b506104356109e0366004614014565b60156020526000908152604090205460ff1681565b348015610a0157600080fd5b50610435610a1036600461421f565b611ac4565b348015610a2157600080fd5b506012546104359060ff1681565b348015610a3b57600080fd5b506104cc7f000000000000000000000000000000000000000000000000000000000000000081565b348015610a6f57600080fd5b50610413610a7e36600461438c565b611b34565b348015610a8f57600080fd5b50610413610a9e3660046140a8565b611b71565b348015610aaf57600080fd5b50610435610abe366004614014565b60146020526000908152604090205460ff1681565b348015610adf57600080fd5b50610413610aee3660046142c6565b611ba3565b348015610aff57600080fd5b5061047f610b0e3660046142c6565b611bd2565b348015610b1f57600080fd5b50610413610b2e3660046145db565b611d49565b610413610b41366004614516565b611e00565b348015610b5257600080fd5b50610435610b6136600461421f565b611f52565b348015610b7257600080fd5b50610413611fa0565b61062c610b8936600461421f565b6120d0565b348015610b9a57600080fd5b5061062c600c5481565b348015610bb057600080fd5b50610413610bbf3660046142c6565b612259565b348015610bd057600080fd5b50610435610bdf366004614030565b6001600160a01b03918216600090815260086020908152604080832093909416825291909152205460ff1690565b348015610c1957600080fd5b50610413610c283660046142c6565b61268b565b348015610c3957600080fd5b50610413610c483660046143d8565b6126ba565b348015610c5957600080fd5b50610413610c68366004614014565b612743565b61062c610c7b36600461421f565b6127db565b348015610c8c57600080fd5b5061047f610c9b36600461458f565b61294e565b348015610cac57600080fd5b5061047f612a05565b337f00000000000000000000000000000000000000000000000000000000000000006001600160a01b031614610d325760405162461bcd60e51b815260206004820152601e60248201527f4c7a4170703a20696e76616c696420656e64706f696e742063616c6c6572000060448201526064015b60405180910390fd5b61ffff841660009081526001602052604081208054610d5090614d71565b80601f0160208091040260200160405190810160405280929190818152602001828054610d7c90614d71565b8015610dc95780601f10610d9e57610100808354040283529160200191610dc9565b820191906000526020600020905b815481529060010190602001808311610dac57829003601f168201915b5050505050905080518451148015610dee575080805190602001208480519060200120145b610e495760405162461bcd60e51b815260206004820152602660248201527f4c7a4170703a20696e76616c696420736f757263652073656e64696e6720636f6044820152651b9d1c9858dd60d21b6064820152608401610d29565b610e5585858585612a12565b5050505050565b60006001600160e01b031982161580610e795750610e7982612b03565b92915050565b6000546001600160a01b03163314610ea95760405162461bcd60e51b8152600401610d29906149c8565b600d91909155600e55565b606060038054610ec390614d71565b80601f0160208091040260200160405190810160405280929190818152602001828054610eef90614d71565b8015610f3c5780601f10610f1157610100808354040283529160200191610f3c565b820191906000526020600020905b815481529060010190602001808311610f1f57829003601f168201915b5050505050905090565b6000546001600160a01b03163314610f705760405162461bcd60e51b8152600401610d29906149c8565b6040516307e0db1760e01b815261ffff821660048201527f00000000000000000000000000000000000000000000000000000000000000006001600160a01b0316906307e0db17906024015b600060405180830381600087803b158015610fd657600080fd5b505af1158015610e55573d6000803e3d6000fd5b6000610ff582612b43565b6110565760405162461bcd60e51b815260206004820152602c60248201527f4552433732313a20617070726f76656420717565727920666f72206e6f6e657860448201526b34b9ba32b73a103a37b5b2b760a11b6064820152608401610d29565b506000908152600760205260409020546001600160a01b031690565b600061107d8261178c565b9050806001600160a01b0316836001600160a01b031614156110eb5760405162461bcd60e51b815260206004820152602160248201527f4552433732313a20617070726f76616c20746f2063757272656e74206f776e656044820152603960f91b6064820152608401610d29565b336001600160a01b038216148061110757506111078133610bdf565b6111795760405162461bcd60e51b815260206004820152603860248201527f4552433732313a20617070726f76652063616c6c6572206973206e6f74206f7760448201527f6e6572206e6f7220617070726f76656420666f7220616c6c00000000000000006064820152608401610d29565b6111838383612b60565b505050565b6000546001600160a01b031633146111b25760405162461bcd60e51b8152600401610d29906149c8565b601b80546001600160a01b0319166001600160a01b0392909216919091179055565b6000546001600160a01b031633146111fe5760405162461bcd60e51b8152600401610d29906149c8565b6112088282612bce565b5050565b6000546001600160a01b031633146112365760405162461bcd60e51b8152600401610d29906149c8565b6040516310ddb13760e01b815261ffff821660048201527f00000000000000000000000000000000000000000000000000000000000000006001600160a01b0316906310ddb13790602401610fbc565b6000546001600160a01b031633146112b05760405162461bcd60e51b8152600401610d29906149c8565b601c80546001600160a01b0319166001600160a01b0392909216919091179055565b6000546001600160a01b031633146112fc5760405162461bcd60e51b8152600401610d29906149c8565b6012805482151560ff1990911617905550565b50565b6000546001600160a01b0316331461133c5760405162461bcd60e51b8152600401610d29906149c8565b601955565b61134c335b82612bf9565b6113685760405162461bcd60e51b8152600401610d29906149fd565b611183838383612ce2565b6000806000868660405160200161138b929190614903565b60408051601f198184030181529082905263040a7bb160e41b825291506001600160a01b037f000000000000000000000000000000000000000000000000000000000000000016906340a7bb10906113ef908b90309086908b908b90600401614a4e565b604080518083038186803b15801561140657600080fd5b505afa15801561141a573d6000803e3d6000fd5b505050506040513d601f19601f8201168201806040525081019061143e9190614680565b92509250509550959350505050565b60006010544210156114ba5760405162461bcd60e51b815260206004820152603060248201527f556e6976657273616c4f4e46543732313a205075626c6963206d696e7420697360448201526f206e6f74206f70656e6564207965742160801b6064820152608401610d29565b336000908152601360205260409020546003906114d8908490614bf5565b11156115325760405162461bcd60e51b8152602060048201526024808201527f556e6976657273616c4f4e46543732313a204d696e7420636f756e74206c696d6044820152631a5d195960e21b6064820152608401610d29565b61153e82600d54612e7e565b3360008181526013602052604090205461157a919061155e908590614bf5565b6001600160a01b03909116600090815260136020526040902055565b6001600b54610e799190614d2e565b919050565b61ffff8316600090815260016020526040812080548291906115af90614d71565b80601f01602080910402602001604051908101604052809291908181526020018280546115db90614d71565b80156116285780601f106115fd57610100808354040283529160200191611628565b820191906000526020600020905b81548152906001019060200180831161160b57829003601f168201915b50505050509050838360405161163f9291906147bb565b60405180910390208180519060200120149150509392505050565b61118383838360405180602001604052806000815250611b71565b6000546001600160a01b0316331461169f5760405162461bcd60e51b8152600401610d29906149c8565b6040516342d65a8d60e01b81526001600160a01b037f000000000000000000000000000000000000000000000000000000000000000016906342d65a8d906116ef90869086908690600401614aa2565b600060405180830381600087803b15801561170957600080fd5b505af115801561171d573d6000803e3d6000fd5b50505050505050565b6000546001600160a01b031633146117505760405162461bcd60e51b8152600401610d29906149c8565b600b839055600c829055805161176d906011906020840190613de5565b506012805460ff19169055505050565b61171d8787878787878761313c565b6000818152600560205260408120546001600160a01b031680610e795760405162461bcd60e51b815260206004820152602960248201527f4552433732313a206f776e657220717565727920666f72206e6f6e657869737460448201526832b73a103a37b5b2b760b91b6064820152608401610d29565b3330146118615760405162461bcd60e51b815260206004820152602660248201527f4e6f6e626c6f636b696e674c7a4170703a2063616c6c6572206d7573742062656044820152650204c7a4170760d41b6064820152608401610d29565b61186d84848484613293565b50505050565b6018602052600090815260409020805461188c90614d71565b80601f01602080910402602001604051908101604052809291908181526020018280546118b890614d71565b80156119055780601f106118da57610100808354040283529160200191611905565b820191906000526020600020905b8154815290600101906020018083116118e857829003601f168201915b505050505081565b60006001600160a01b0382166119785760405162461bcd60e51b815260206004820152602a60248201527f4552433732313a2062616c616e636520717565727920666f7220746865207a65604482015269726f206164647265737360b01b6064820152608401610d29565b506001600160a01b031660009081526006602052604090205490565b6000546001600160a01b031633146119be5760405162461bcd60e51b8152600401610d29906149c8565b6119c8600061332e565b565b6001602052600090815260409020805461188c90614d71565b6000546001600160a01b03163314611a0d5760405162461bcd60e51b8152600401610d29906149c8565b611208828261337e565b6000546001600160a01b03163314611a415760405162461bcd60e51b8152600401610d29906149c8565b6001600160a01b0391909116600090815260136020526040902055565b606060048054610ec390614d71565b6112083383836133a9565b6000546001600160a01b03163314611aa25760405162461bcd60e51b8152600401610d29906149c8565b601d80546001600160a01b0319166001600160a01b0392909216919091179055565b6000611b2d83838080602002602001604051908101604052809392919081815260200183836020028082843760009201919091525050601a54604051909250611b129150339060200161479e565b60405160208183030381529060405280519060200120613478565b9392505050565b6000546001600160a01b03163314611b5e5760405162461bcd60e51b8152600401610d29906149c8565b8051611208906011906020840190613de5565b611b7b3383612bf9565b611b975760405162461bcd60e51b8152600401610d29906149fd565b61186d8484848461348e565b6000546001600160a01b03163314611bcd5760405162461bcd60e51b8152600401610d29906149c8565b601a55565b6060611bdd82612b43565b611c435760405162461bcd60e51b815260206004820152603160248201527f45524337323155524953746f726167653a2055524920717565727920666f72206044820152703737b732bc34b9ba32b73a103a37b5b2b760791b6064820152608401610d29565b60008281526009602052604081208054611c5c90614d71565b80601f0160208091040260200160405190810160405280929190818152602001828054611c8890614d71565b8015611cd55780601f10611caa57610100808354040283529160200191611cd5565b820191906000526020600020905b815481529060010190602001808311611cb857829003601f168201915b505050505090506000611cf360408051602081019091526000815290565b9050805160001415611d06575092915050565b815115611d38578082604051602001611d209291906147e7565b60405160208183030381529060405292505050919050565b611d41846134c1565b949350505050565b6000546001600160a01b03163314611d735760405162461bcd60e51b8152600401610d29906149c8565b6040516332fb62e760e21b81526001600160a01b037f0000000000000000000000000000000000000000000000000000000000000000169063cbed8b9c90611dc79088908890889088908890600401614b70565b600060405180830381600087803b158015611de157600080fd5b505af1158015611df5573d6000803e3d6000fd5b505050505050505050565b61ffff84166000908152600260205260408082209051611e219086906147cb565b90815260408051602092819003830190206001600160401b03861660009081529252902054905080611ea15760405162461bcd60e51b815260206004820152602360248201527f4e6f6e626c6f636b696e674c7a4170703a206e6f2073746f726564206d65737360448201526261676560e81b6064820152608401610d29565b815160208301208114611f005760405162461bcd60e51b815260206004820152602160248201527f4e6f6e626c6f636b696e674c7a4170703a20696e76616c6964207061796c6f616044820152601960fa1b6064820152608401610d29565b61ffff85166000908152600260205260408082209051611f219087906147cb565b90815260408051602092819003830190206001600160401b03871660009081529252902055610e5585858585613293565b6000611b2d83838080602002602001604051908101604052809392919081815260200183836020028082843760009201919091525050601954604051909250611b129150339060200161479e565b6000546001600160a01b03163314611fca5760405162461bcd60e51b8152600401610d29906149c8565b601c546040516370a0823160e01b81523060048201526000916001600160a01b0316906370a082319060240160206040518083038186803b15801561200e57600080fd5b505afa158015612022573d6000803e3d6000fd5b505050506040513d601f19601f820116820180604052508101906120469190614647565b601c54601d5460405163a9059cbb60e01b81526001600160a01b03918216600482015260248101849052929350169063a9059cbb90604401602060405180830381600087803b15801561209857600080fd5b505af11580156120ac573d6000803e3d6000fd5b505050506040513d601f19601f8201168201806040525081019061120891906142aa565b6000620151806010546120e39190614d2e565b4210156121025760405162461bcd60e51b8152600401610d2990614977565b828261215082828080602002602001604051908101604052809392919081815260200183836020028082843760009201919091525050601a54604051909250611b129150339060200161479e565b6121b55760405162461bcd60e51b815260206004820152603060248201527f556e6976657273616c4f4e46543732313a2041646472657373206973204e4f5460448201526f20467265656c6973746564207965742160801b6064820152608401610d29565b3360009081526015602052604090205460ff161561222a5760405162461bcd60e51b815260206004820152602c60248201527f556e6976657273616c4f4e46543732313a20467265656e6c69737420616c726560448201526b61647920636c61696d65642160a01b6064820152608401610d29565b61223660016000612e7e565b61224133600161337e565b6001600b546122509190614d2e565b95945050505050565b600061226482612b43565b6122c05760405162461bcd60e51b815260206004820152602760248201527f556e6976657273616c4f4e46543732313a20546f6b656e20646f6573206e6f746044820152662065786973742160c81b6064820152608401610d29565b336122ca8361178c565b6001600160a01b0316146123205760405162461bcd60e51b815260206004820181905260248201527f556e6976657273616c4f4e46543732313a204e6f7420796f757220746f6b656e6044820152606401610d29565b6000828152601660205260409020546123875760405162461bcd60e51b815260206004820152602360248201527f556e6976657273616c4f4e46543732313a20506f7a2062616c616e636520697360448201526220302160e81b6064820152608401610d29565b601054612397906276a700614bf5565b42116123ff5760405162461bcd60e51b815260206004820152603160248201527f556e6976657273616c4f4e46543732313a20506f7a207769746864726177206960448201527073206e6f74206f70656e6564207965742160781b6064820152608401610d29565b60005b600981101561118357426124198262278d00614d0f565b601054612429906276a700614bf5565b6124339190614bf5565b111580156124725750612447816001614bf5565b6124549062278d00614d0f565b601054612464906276a700614bf5565b61246e9190614bf5565b4211155b15612679576000838152601760205260409020548110156124ef5760405162461bcd60e51b815260206004820152603160248201527f556e6976657273616c4f4e46543732313a20506f7a2077697468647261772074604482015270696d65206973206e6f742072696768742160781b6064820152608401610d29565b6000838152601760205260409020548111156125215760008381526017602052604090205461251e9082614d2e565b91505b61252c816001614bf5565b60008481526017602090815260409182902092909255601c54815163313ce56760e01b815291516001600160a01b039091169263a9059cbb923392606492869263313ce5679260048083019392829003018186803b15801561258d57600080fd5b505afa1580156125a1573d6000803e3d6000fd5b505050506040513d601f19601f820116820180604052508101906125c5919061470c565b6125d090600a614c64565b6125dc9061029a614d0f565b6125e7876001614bf5565b6125f19190614d0f565b6125fb9190614c0d565b6040516001600160e01b031960e085901b1681526001600160a01b0390921660048301526024820152604401602060405180830381600087803b15801561264157600080fd5b505af1158015612655573d6000803e3d6000fd5b505050506040513d601f19601f8201168201806040525081019061186d91906142aa565b8061268381614dac565b915050612402565b6000546001600160a01b031633146126b55760405162461bcd60e51b8152600401610d29906149c8565b601055565b6000546001600160a01b031633146126e45760405162461bcd60e51b8152600401610d29906149c8565b61ffff83166000908152600160205260409020612702908383613e69565b507ffa41487ad5d6728f0b19276fa1eddc16558578f5109fc39d2dc33c3230470dab83838360405161273693929190614aa2565b60405180910390a1505050565b6000546001600160a01b0316331461276d5760405162461bcd60e51b8152600401610d29906149c8565b6001600160a01b0381166127d25760405162461bcd60e51b815260206004820152602660248201527f4f776e61626c653a206e6577206f776e657220697320746865207a65726f206160448201526564647265737360d01b6064820152608401610d29565b61130f8161332e565b6000620151806010546127ee9190614d2e565b42101561280d5760405162461bcd60e51b8152600401610d2990614977565b828261285b82828080602002602001604051908101604052809392919081815260200183836020028082843760009201919091525050601954604051909250611b129150339060200161479e565b6128c15760405162461bcd60e51b815260206004820152603160248201527f556e6976657273616c4f4e46543732313a2041646472657373206973204e4f5460448201527020477265656e6c6973746564207965742160781b6064820152608401610d29565b3360009081526014602052604090205460ff16156129365760405162461bcd60e51b815260206004820152602c60248201527f556e6976657273616c4f4e46543732313a20477265656e6c69737420616c726560448201526b61647920636c61696d65642160a01b6064820152608401610d29565b6129436001600e54612e7e565b612241336001612bce565b604051633d7b2f6f60e21b815261ffff808616600483015284166024820152306044820152606481018290526060907f00000000000000000000000000000000000000000000000000000000000000006001600160a01b03169063f5ecbdbc9060840160006040518083038186803b1580156129c957600080fd5b505afa1580156129dd573d6000803e3d6000fd5b505050506040513d6000823e601f3d908101601f191682016040526122509190810190614316565b6011805461188c90614d71565b604051633356ae4560e11b815230906366ad5c8a90612a3b908790879087908790600401614b27565b600060405180830381600087803b158015612a5557600080fd5b505af1925050508015612a66575060015b61186d578080519060200120600260008661ffff1661ffff16815260200190815260200160002084604051612a9b91906147cb565b9081526040805191829003602090810183206001600160401b0387166000908152915220919091557fe6f254030bcb01ffd20558175c13fcaed6d1520be7becee4c961b65f79243b0d90612af6908690869086908690614b27565b60405180910390a161186d565b60006001600160e01b031982166380ac58cd60e01b1480612b3457506001600160e01b03198216635b5e139f60e01b145b80610e795750610e7982613598565b6000908152600560205260409020546001600160a01b0316151590565b600081815260076020526040902080546001600160a01b0319166001600160a01b0384169081179091558190612b958261178c565b6001600160a01b03167f8c5be1e5ebec7d5bd14f71427d1e84f3dd0314c0f7b2291e5b200ac8c7c3b92560405160405180910390a45050565b6001600160a01b03919091166000908152601460205260409020805460ff1916911515919091179055565b6000612c0482612b43565b612c655760405162461bcd60e51b815260206004820152602c60248201527f4552433732313a206f70657261746f7220717565727920666f72206e6f6e657860448201526b34b9ba32b73a103a37b5b2b760a11b6064820152608401610d29565b6000612c708361178c565b9050806001600160a01b0316846001600160a01b03161480612cb757506001600160a01b0380821660009081526008602090815260408083209388168352929052205460ff165b80611d415750836001600160a01b0316612cd084610fea565b6001600160a01b031614949350505050565b826001600160a01b0316612cf58261178c565b6001600160a01b031614612d595760405162461bcd60e51b815260206004820152602560248201527f4552433732313a207472616e736665722066726f6d20696e636f72726563742060448201526437bbb732b960d91b6064820152608401610d29565b6001600160a01b038216612dbb5760405162461bcd60e51b8152602060048201526024808201527f4552433732313a207472616e7366657220746f20746865207a65726f206164646044820152637265737360e01b6064820152608401610d29565b612dc6600082612b60565b6001600160a01b0383166000908152600660205260408120805460019290612def908490614d2e565b90915550506001600160a01b0382166000908152600660205260408120805460019290612e1d908490614bf5565b909155505060008181526005602052604080822080546001600160a01b0319166001600160a01b0386811691821790925591518493918716917fddf252ad1be2c89b69c2b068fc378daa952ba7f163c4a11628f55a4df523b3ef91a4505050565b600c54600183600b54612e919190614bf5565b612e9b9190614d2e565b1115612efa5760405162461bcd60e51b815260206004820152602860248201527f556e6976657273616c4f4e46543732313a206d6178206d696e74206c696d6974604482015267081c995858da195960c21b6064820152608401610d29565b60125460ff1615612f4d5760405162461bcd60e51b815260206004820181905260248201527f556e6976657273616c4f4e46543732313a204d696e74206973205061757365646044820152606401610d29565b801561308757601b54601d546040805163313ce56760e01b815290516001600160a01b03938416936323b872dd933393911691859163313ce567916004808301926020929190829003018186803b158015612fa757600080fd5b505afa158015612fbb573d6000803e3d6000fd5b505050506040513d601f19601f82011682018060405250810190612fdf919061470c565b612fea90600a614c64565b612ff48688614d0f565b612ffe9190614d0f565b6040516001600160e01b031960e086901b1681526001600160a01b0393841660048201529290911660248301526044820152606401602060405180830381600087803b15801561304d57600080fd5b505af1158015613061573d6000803e3d6000fd5b505050506040513d601f19601f8201168201806040525081019061308591906142aa565b505b60005b8281101561311357600f54600b8054600090815260166020526040902091909155546130b633826135cd565b6130ea8160116130c5846135e7565b6040516020016130d6929190614816565b604051602081830303815290604052613700565b600b80549060006130fa83614dac565b919050555050808061310b90614dac565b91505061308a565b50600c54613122906001614bf5565b600b541415611208576012805460ff191660011790555050565b6131488787878761378b565b6000858560405160200161315d929190614903565b604051602081830303815290604052905061317b8782868686613874565b604051630f428ae960e31b815261ffff881660048201523060248201526000907f00000000000000000000000000000000000000000000000000000000000000006001600160a01b031690637a1457489060440160206040518083038186803b1580156131e757600080fd5b505afa1580156131fb573d6000803e3d6000fd5b505050506040513d601f19601f8201168201806040525081019061321f91906146f0565b90508660405161322f91906147cb565b604080519182900382208883526001600160401b03841660208401529161ffff8b16916001600160a01b038d16917f024797cc77ce15dc717112d54fb1df125fdfd8c81344fb046c5e074427ce1543910160405180910390a4505050505050505050565b600080828060200190518101906132aa9190614348565b601482015191935091506132bf878284613a0e565b806001600160a01b0316866040516132d791906147cb565b604080519182900382208583526001600160401b03891660208401529161ffff8b16917f64e10c37f404d128982dce114f5d233c14c5c7f6d8db93099e3d99dacb9e27ba910160405180910390a450505050505050565b600080546001600160a01b038381166001600160a01b0319831681178455604051919092169283917f8be0079c531659141344cd1fd0a4f28419497f9722a3daafe3b4186f6b6457e09190a35050565b6001600160a01b03919091166000908152601560205260409020805460ff1916911515919091179055565b816001600160a01b0316836001600160a01b0316141561340b5760405162461bcd60e51b815260206004820152601960248201527f4552433732313a20617070726f766520746f2063616c6c6572000000000000006044820152606401610d29565b6001600160a01b03838116600081815260086020908152604080832094871680845294825291829020805460ff191686151590811790915591519182527f17307eab39ab6107e8899845ad3d59bd9653f200f220920489ca2b5937696c31910160405180910390a3505050565b6000826134858584613a18565b14949350505050565b613499848484612ce2565b6134a584848484613a9a565b61186d5760405162461bcd60e51b8152600401610d2990614925565b60606134cc82612b43565b6135305760405162461bcd60e51b815260206004820152602f60248201527f4552433732314d657461646174613a2055524920717565727920666f72206e6f60448201526e3732bc34b9ba32b73a103a37b5b2b760891b6064820152608401610d29565b600061354760408051602081019091526000815290565b905060008151116135675760405180602001604052806000815250611b2d565b80613571846135e7565b6040516020016135829291906147e7565b6040516020818303038152906040529392505050565b60006001600160e01b03198216637bb0080b60e01b1480610e7957506301ffc9a760e01b6001600160e01b0319831614610e79565b611208828260405180602001604052806000815250613ba4565b60608161360b5750506040805180820190915260018152600360fc1b602082015290565b8160005b8115613635578061361f81614dac565b915061362e9050600a83614c0d565b915061360f565b6000816001600160401b0381111561365d57634e487b7160e01b600052604160045260246000fd5b6040519080825280601f01601f191660200182016040528015613687576020820181803683370190505b5090505b8415611d415761369c600183614d2e565b91506136a9600a86614dc7565b6136b4906030614bf5565b60f81b8183815181106136d757634e487b7160e01b600052603260045260246000fd5b60200101906001600160f81b031916908160001a9053506136f9600a86614c0d565b945061368b565b61370982612b43565b61376c5760405162461bcd60e51b815260206004820152602e60248201527f45524337323155524953746f726167653a2055524920736574206f66206e6f6e60448201526d32bc34b9ba32b73a103a37b5b2b760911b6064820152608401610d29565b6000828152600960209081526040909120825161118392840190613de5565b61379433611346565b6137f75760405162461bcd60e51b815260206004820152602e60248201527f4f4e46543732313a2073656e642063616c6c6572206973206e6f74206f776e6560448201526d1c881b9bdc88185c1c1c9bdd995960921b6064820152608401610d29565b836001600160a01b031661380a8261178c565b6001600160a01b03161461386b5760405162461bcd60e51b815260206004820152602260248201527f4f4e46543732313a2073656e642066726f6d20696e636f7272656374206f776e60448201526132b960f11b6064820152608401610d29565b61186d81613bd7565b61ffff85166000908152600160205260408120805461389290614d71565b80601f01602080910402602001604051908101604052809291908181526020018280546138be90614d71565b801561390b5780601f106138e05761010080835404028352916020019161390b565b820191906000526020600020905b8154815290600101906020018083116138ee57829003601f168201915b5050505050905080516000141561397d5760405162461bcd60e51b815260206004820152603060248201527f4c7a4170703a2064657374696e6174696f6e20636861696e206973206e6f742060448201526f61207472757374656420736f7572636560801b6064820152608401610d29565b60405162c5803160e81b81526001600160a01b037f0000000000000000000000000000000000000000000000000000000000000000169063c58031009034906139d4908a9086908b908b908b908b90600401614ac0565b6000604051808303818588803b1580156139ed57600080fd5b505af1158015613a01573d6000803e3d6000fd5b5050505050505050505050565b61118382826135cd565b600081815b8451811015613a92576000858281518110613a4857634e487b7160e01b600052603260045260246000fd5b60200260200101519050808311613a6e5760008381526020829052604090209250613a7f565b600081815260208490526040902092505b5080613a8a81614dac565b915050613a1d565b509392505050565b60006001600160a01b0384163b15613b9c57604051630a85bd0160e11b81526001600160a01b0385169063150b7a0290613ade9033908990889088906004016148b3565b602060405180830381600087803b158015613af857600080fd5b505af1925050508015613b28575060408051601f3d908101601f19168201909252613b25918101906142fa565b60015b613b82573d808015613b56576040519150601f19603f3d011682016040523d82523d6000602084013e613b5b565b606091505b508051613b7a5760405162461bcd60e51b8152600401610d2990614925565b805181602001fd5b6001600160e01b031916630a85bd0160e11b149050611d41565b506001611d41565b613bae8383613c17565b613bbb6000848484613a9a565b6111835760405162461bcd60e51b8152600401610d2990614925565b613be081613d4a565b60008181526009602052604090208054613bf990614d71565b15905061130f57600081815260096020526040812061130f91613edd565b6001600160a01b038216613c6d5760405162461bcd60e51b815260206004820181905260248201527f4552433732313a206d696e7420746f20746865207a65726f20616464726573736044820152606401610d29565b613c7681612b43565b15613cc35760405162461bcd60e51b815260206004820152601c60248201527f4552433732313a20746f6b656e20616c7265616479206d696e746564000000006044820152606401610d29565b6001600160a01b0382166000908152600660205260408120805460019290613cec908490614bf5565b909155505060008181526005602052604080822080546001600160a01b0319166001600160a01b03861690811790915590518392907fddf252ad1be2c89b69c2b068fc378daa952ba7f163c4a11628f55a4df523b3ef908290a45050565b6000613d558261178c565b9050613d62600083612b60565b6001600160a01b0381166000908152600660205260408120805460019290613d8b908490614d2e565b909155505060008281526005602052604080822080546001600160a01b0319169055518391906001600160a01b038416907fddf252ad1be2c89b69c2b068fc378daa952ba7f163c4a11628f55a4df523b3ef908390a45050565b828054613df190614d71565b90600052602060002090601f016020900481019282613e135760008555613e59565b82601f10613e2c57805160ff1916838001178555613e59565b82800160010185558215613e59579182015b82811115613e59578251825591602001919060010190613e3e565b50613e65929150613f13565b5090565b828054613e7590614d71565b90600052602060002090601f016020900481019282613e975760008555613e59565b82601f10613eb05782800160ff19823516178555613e59565b82800160010185558215613e59579182015b82811115613e59578235825591602001919060010190613ec2565b508054613ee990614d71565b6000825580601f10613ef9575050565b601f01602090049060005260206000209081019061130f91905b5b80821115613e655760008155600101613f14565b60008083601f840112613f39578182fd5b5081356001600160401b03811115613f4f578182fd5b602083019150836020828501011115613f6757600080fd5b9250929050565b600082601f830112613f7e578081fd5b8135613f91613f8c82614bce565b614b9e565b818152846020838601011115613fa5578283fd5b816020850160208301379081016020019190915292915050565b600082601f830112613fcf578081fd5b8151613fdd613f8c82614bce565b818152846020838601011115613ff1578283fd5b611d41826020830160208701614d45565b803561ffff8116811461158957600080fd5b600060208284031215614025578081fd5b8135611b2d81614e1d565b60008060408385031215614042578081fd5b823561404d81614e1d565b9150602083013561405d81614e1d565b809150509250929050565b60008060006060848603121561407c578081fd5b833561408781614e1d565b9250602084013561409781614e1d565b929592945050506040919091013590565b600080600080608085870312156140bd578081fd5b84356140c881614e1d565b935060208501356140d881614e1d565b92506040850135915060608501356001600160401b038111156140f9578182fd5b61410587828801613f6e565b91505092959194509250565b60008060408385031215614123578182fd5b823561412e81614e1d565b9150602083013561405d81614e32565b600080600080600080600060e0888a031215614158578283fd5b873561416381614e1d565b965061417160208901614002565b955060408801356001600160401b038082111561418c578485fd5b6141988b838c01613f6e565b965060608a0135955060808a013591506141b182614e1d565b90935060a0890135906141c382614e1d565b90925060c089013590808211156141d8578283fd5b506141e58a828b01613f6e565b91505092959891949750929550565b60008060408385031215614206578182fd5b823561421181614e1d565b946020939093013593505050565b60008060208385031215614231578182fd5b82356001600160401b0380821115614247578384fd5b818501915085601f83011261425a578384fd5b813581811115614268578485fd5b8660208260051b850101111561427c578485fd5b60209290920196919550909350505050565b60006020828403121561429f578081fd5b8135611b2d81614e32565b6000602082840312156142bb578081fd5b8151611b2d81614e32565b6000602082840312156142d7578081fd5b5035919050565b6000602082840312156142ef578081fd5b8135611b2d81614e40565b60006020828403121561430b578081fd5b8151611b2d81614e40565b600060208284031215614327578081fd5b81516001600160401b0381111561433c578182fd5b611d4184828501613fbf565b6000806040838503121561435a578182fd5b82516001600160401b0381111561436f578283fd5b61437b85828601613fbf565b925050602083015190509250929050565b60006020828403121561439d578081fd5b81356001600160401b038111156143b2578182fd5b611d4184828501613f6e565b6000602082840312156143cf578081fd5b611b2d82614002565b6000806000604084860312156143ec578081fd5b6143f584614002565b925060208401356001600160401b0381111561440f578182fd5b61441b86828701613f28565b9497909650939450505050565b600080600080600060a0868803121561443f578283fd5b61444886614002565b945060208601356001600160401b0380821115614463578485fd5b61446f89838a01613f6e565b9550604088013594506060880135915061448882614e32565b9092506080870135908082111561449d578283fd5b506144aa88828901613f6e565b9150509295509295909350565b6000806000606084860312156144cb578081fd5b6144d484614002565b925060208401356001600160401b038111156144ee578182fd5b6144fa86828701613f6e565b925050604084013561450b81614e56565b809150509250925092565b6000806000806080858703121561452b578182fd5b61453485614002565b935060208501356001600160401b038082111561454f578384fd5b61455b88838901613f6e565b94506040870135915061456d82614e56565b90925060608601359080821115614582578283fd5b5061410587828801613f6e565b600080600080608085870312156145a4578182fd5b6145ad85614002565b93506145bb60208601614002565b925060408501356145cb81614e1d565b9396929550929360600135925050565b6000806000806000608086880312156145f2578283fd5b6145fb86614002565b945061460960208701614002565b93506040860135925060608601356001600160401b0381111561462a578182fd5b61463688828901613f28565b969995985093965092949392505050565b600060208284031215614658578081fd5b5051919050565b60008060408385031215614671578182fd5b50508035926020909101359150565b60008060408385031215614692578182fd5b505080516020909101519092909150565b6000806000606084860312156146b7578081fd5b833592506020840135915060408401356001600160401b038111156146da578182fd5b6146e686828701613f6e565b9150509250925092565b600060208284031215614701578081fd5b8151611b2d81614e56565b60006020828403121561471d578081fd5b815160ff81168114611b2d578182fd5b81835281816020850137506000828201602090810191909152601f909101601f19169091010190565b6000815180845261476e816020860160208601614d45565b601f01601f19169290920160200192915050565b60008151614794818560208601614d45565b9290920192915050565b60609190911b6bffffffffffffffffffffffff1916815260140190565b8183823760009101908152919050565b600082516147dd818460208701614d45565b9190910192915050565b600083516147f9818460208801614d45565b83519083019061480d818360208801614d45565b01949350505050565b600080845482600182811c91508083168061483257607f831692505b602080841082141561485257634e487b7160e01b87526022600452602487fd5b8180156148665760018114614877576148a3565b60ff198616895284890196506148a3565b60008b815260209020885b8681101561489b5781548b820152908501908301614882565b505084890196505b5050505050506122508185614782565b6001600160a01b03858116825284166020820152604081018390526080606082018190526000906148e690830184614756565b9695505050505050565b602081526000611b2d6020830184614756565b6040815260006149166040830185614756565b90508260208301529392505050565b60208082526032908201527f4552433732313a207472616e7366657220746f206e6f6e20455243373231526560408201527131b2b4bb32b91034b6b83632b6b2b73a32b960711b606082015260800190565b60208082526031908201527f556e6976657273616c4f4e46543732313a205370656369616c206d696e74206960408201527073206e6f74206f70656e6564207965742160781b606082015260800190565b6020808252818101527f4f776e61626c653a2063616c6c6572206973206e6f7420746865206f776e6572604082015260600190565b60208082526031908201527f4552433732313a207472616e736665722063616c6c6572206973206e6f74206f6040820152701ddb995c881b9bdc88185c1c1c9bdd9959607a1b606082015260800190565b61ffff861681526001600160a01b038516602082015260a060408201819052600090614a7c90830186614756565b84151560608401528281036080840152614a968185614756565b98975050505050505050565b61ffff8416815260406020820152600061225060408301848661472d565b61ffff8716815260c060208201526000614add60c0830188614756565b8281036040840152614aef8188614756565b6001600160a01b0387811660608601528616608085015283810360a08501529050614b1a8185614756565b9998505050505050505050565b61ffff85168152608060208201526000614b446080830186614756565b6001600160401b03851660408401528281036060840152614b658185614756565b979650505050505050565b600061ffff808816835280871660208401525084604083015260806060830152614b6560808301848661472d565b604051601f8201601f191681016001600160401b0381118282101715614bc657614bc6614e07565b604052919050565b60006001600160401b03821115614be757614be7614e07565b50601f01601f191660200190565b60008219821115614c0857614c08614ddb565b500190565b600082614c1c57614c1c614df1565b500490565b600181815b80851115614c5c578160001904821115614c4257614c42614ddb565b80851615614c4f57918102915b93841c9390800290614c26565b509250929050565b6000611b2d60ff841683600082614c7d57506001610e79565b81614c8a57506000610e79565b8160018114614ca05760028114614caa57614cc6565b6001915050610e79565b60ff841115614cbb57614cbb614ddb565b50506001821b610e79565b5060208310610133831016604e8410600b8410161715614ce9575081810a610e79565b614cf38383614c21565b8060001904821115614d0757614d07614ddb565b029392505050565b6000816000190483118215151615614d2957614d29614ddb565b500290565b600082821015614d4057614d40614ddb565b500390565b60005b83811015614d60578181015183820152602001614d48565b8381111561186d5750506000910152565b600181811c90821680614d8557607f821691505b60208210811415614da657634e487b7160e01b600052602260045260246000fd5b50919050565b6000600019821415614dc057614dc0614ddb565b5060010190565b600082614dd657614dd6614df1565b500690565b634e487b7160e01b600052601160045260246000fd5b634e487b7160e01b600052601260045260246000fd5b634e487b7160e01b600052604160045260246000fd5b6001600160a01b038116811461130f57600080fd5b801515811461130f57600080fd5b6001600160e01b03198116811461130f57600080fd5b6001600160401b038116811461130f57600080fdfea26469706673582212206f6d363d332013c9afc77b714e89e5f4f272868755b5f3bf5b1f57777824236064736f6c634300080400334f776e61626c653a2063616c6c6572206973206e6f7420746865206f776e6572",
  "devdoc": {
    "kind": "dev",
    "methods": {
      "approve(address,uint256)": {
        "details": "See {IERC721-approve}."
      },
      "balanceOf(address)": {
        "details": "See {IERC721-balanceOf}."
      },
      "estimateSendFee(uint16,bytes,uint256,bool,bytes)": {
        "details": "estimate send token `_tokenId` to (`_dstChainId`, `_toAddress`) _dstChainId - L0 defined chain id to send tokens too _toAddress - dynamic bytes array which contains the address to whom you are sending tokens to on the dstChain _tokenId - token Id to transfer _useZro - indicates to use zro to pay L0 fees _adapterParams - flexible bytes array to indicate messaging adapter services in L0"
      },
      "getApproved(uint256)": {
        "details": "See {IERC721-getApproved}."
      },
      "isApprovedForAll(address,address)": {
        "details": "See {IERC721-isApprovedForAll}."
      },
      "name()": {
        "details": "See {IERC721Metadata-name}."
      },
      "owner()": {
        "details": "Returns the address of the current owner."
      },
      "ownerOf(uint256)": {
        "details": "See {IERC721-ownerOf}."
      },
      "renounceOwnership()": {
        "details": "Leaves the contract without owner. It will not be possible to call `onlyOwner` functions anymore. Can only be called by the current owner. NOTE: Renouncing ownership will leave the contract without an owner, thereby removing any functionality that is only available to the owner."
      },
      "safeTransferFrom(address,address,uint256)": {
        "details": "See {IERC721-safeTransferFrom}."
      },
      "safeTransferFrom(address,address,uint256,bytes)": {
        "details": "See {IERC721-safeTransferFrom}."
      },
      "sendFrom(address,uint16,bytes,uint256,address,address,bytes)": {
        "details": "send token `_tokenId` to (`_dstChainId`, `_toAddress`) from `_from` `_toAddress` can be any size depending on the `dstChainId`. `_zroPaymentAddress` set to address(0x0) if not paying in ZRO (LayerZero Token) `_adapterParams` is a flexible bytes array to indicate messaging adapter services"
      },
      "setApprovalForAll(address,bool)": {
        "details": "See {IERC721-setApprovalForAll}."
      },
      "symbol()": {
        "details": "See {IERC721Metadata-symbol}."
      },
      "tokenURI(uint256)": {
        "details": "See {IERC721Metadata-tokenURI}."
      },
      "transferFrom(address,address,uint256)": {
        "details": "See {IERC721-transferFrom}."
      },
      "transferOwnership(address)": {
        "details": "Transfers ownership of the contract to a new account (`newOwner`). Can only be called by the current owner."
      }
    },
    "version": 1
  },
  "userdoc": {
    "kind": "user",
    "methods": {},
    "version": 1
  },
  "storageLayout": {
    "storage": [
      {
        "astId": 7,
        "contract": "contracts/PozzlenautsONFTPoz.sol:PozzlenautsONFTPoz",
        "label": "_owner",
        "offset": 0,
        "slot": "0",
        "type": "t_address"
      },
      {
        "astId": 2302,
        "contract": "contracts/PozzlenautsONFTPoz.sol:PozzlenautsONFTPoz",
        "label": "trustedRemoteLookup",
        "offset": 0,
        "slot": "1",
        "type": "t_mapping(t_uint16,t_bytes_storage)"
      },
      {
        "astId": 2592,
        "contract": "contracts/PozzlenautsONFTPoz.sol:PozzlenautsONFTPoz",
        "label": "failedMessages",
        "offset": 0,
        "slot": "2",
        "type": "t_mapping(t_uint16,t_mapping(t_bytes_memory_ptr,t_mapping(t_uint64,t_bytes32)))"
      },
      {
        "astId": 248,
        "contract": "contracts/PozzlenautsONFTPoz.sol:PozzlenautsONFTPoz",
        "label": "_name",
        "offset": 0,
        "slot": "3",
        "type": "t_string_storage"
      },
      {
        "astId": 250,
        "contract": "contracts/PozzlenautsONFTPoz.sol:PozzlenautsONFTPoz",
        "label": "_symbol",
        "offset": 0,
        "slot": "4",
        "type": "t_string_storage"
      },
      {
        "astId": 254,
        "contract": "contracts/PozzlenautsONFTPoz.sol:PozzlenautsONFTPoz",
        "label": "_owners",
        "offset": 0,
        "slot": "5",
        "type": "t_mapping(t_uint256,t_address)"
      },
      {
        "astId": 258,
        "contract": "contracts/PozzlenautsONFTPoz.sol:PozzlenautsONFTPoz",
        "label": "_balances",
        "offset": 0,
        "slot": "6",
        "type": "t_mapping(t_address,t_uint256)"
      },
      {
        "astId": 262,
        "contract": "contracts/PozzlenautsONFTPoz.sol:PozzlenautsONFTPoz",
        "label": "_tokenApprovals",
        "offset": 0,
        "slot": "7",
        "type": "t_mapping(t_uint256,t_address)"
      },
      {
        "astId": 268,
        "contract": "contracts/PozzlenautsONFTPoz.sol:PozzlenautsONFTPoz",
        "label": "_operatorApprovals",
        "offset": 0,
        "slot": "8",
        "type": "t_mapping(t_address,t_mapping(t_address,t_bool))"
      },
      {
        "astId": 1235,
        "contract": "contracts/PozzlenautsONFTPoz.sol:PozzlenautsONFTPoz",
        "label": "_tokenURIs",
        "offset": 0,
        "slot": "9",
        "type": "t_mapping(t_uint256,t_string_storage)"
      },
      {
        "astId": 115,
        "contract": "contracts/PozzlenautsONFTPoz.sol:PozzlenautsONFTPoz",
        "label": "_status",
        "offset": 0,
        "slot": "10",
        "type": "t_uint256"
      },
      {
        "astId": 3899,
        "contract": "contracts/PozzlenautsONFTPoz.sol:PozzlenautsONFTPoz",
        "label": "nextMintId",
        "offset": 0,
        "slot": "11",
        "type": "t_uint256"
      },
      {
        "astId": 3901,
        "contract": "contracts/PozzlenautsONFTPoz.sol:PozzlenautsONFTPoz",
        "label": "maxMintId",
        "offset": 0,
        "slot": "12",
        "type": "t_uint256"
      },
      {
        "astId": 3904,
        "contract": "contracts/PozzlenautsONFTPoz.sol:PozzlenautsONFTPoz",
        "label": "publicPrice",
        "offset": 0,
        "slot": "13",
        "type": "t_uint256"
      },
      {
        "astId": 3907,
        "contract": "contracts/PozzlenautsONFTPoz.sol:PozzlenautsONFTPoz",
        "label": "greenPrice",
        "offset": 0,
        "slot": "14",
        "type": "t_uint256"
      },
      {
        "astId": 3910,
        "contract": "contracts/PozzlenautsONFTPoz.sol:PozzlenautsONFTPoz",
        "label": "initPoz",
        "offset": 0,
        "slot": "15",
        "type": "t_uint256"
      },
      {
        "astId": 3914,
        "contract": "contracts/PozzlenautsONFTPoz.sol:PozzlenautsONFTPoz",
        "label": "publicDate",
        "offset": 0,
        "slot": "16",
        "type": "t_uint256"
      },
      {
        "astId": 3916,
        "contract": "contracts/PozzlenautsONFTPoz.sol:PozzlenautsONFTPoz",
        "label": "currentURI",
        "offset": 0,
        "slot": "17",
        "type": "t_string_storage"
      },
      {
        "astId": 3919,
        "contract": "contracts/PozzlenautsONFTPoz.sol:PozzlenautsONFTPoz",
        "label": "isPaused",
        "offset": 0,
        "slot": "18",
        "type": "t_bool"
      },
      {
        "astId": 3923,
        "contract": "contracts/PozzlenautsONFTPoz.sol:PozzlenautsONFTPoz",
        "label": "countMinted",
        "offset": 0,
        "slot": "19",
        "type": "t_mapping(t_address,t_uint256)"
      },
      {
        "astId": 3927,
        "contract": "contracts/PozzlenautsONFTPoz.sol:PozzlenautsONFTPoz",
        "label": "isGLClaimed",
        "offset": 0,
        "slot": "20",
        "type": "t_mapping(t_address,t_bool)"
      },
      {
        "astId": 3931,
        "contract": "contracts/PozzlenautsONFTPoz.sol:PozzlenautsONFTPoz",
        "label": "isFLClaimed",
        "offset": 0,
        "slot": "21",
        "type": "t_mapping(t_address,t_bool)"
      },
      {
        "astId": 3935,
        "contract": "contracts/PozzlenautsONFTPoz.sol:PozzlenautsONFTPoz",
        "label": "tokenBalance",
        "offset": 0,
        "slot": "22",
        "type": "t_mapping(t_uint256,t_uint256)"
      },
      {
        "astId": 3939,
        "contract": "contracts/PozzlenautsONFTPoz.sol:PozzlenautsONFTPoz",
        "label": "withdrawTimes",
        "offset": 0,
        "slot": "23",
        "type": "t_mapping(t_uint256,t_uint256)"
      },
      {
        "astId": 3943,
        "contract": "contracts/PozzlenautsONFTPoz.sol:PozzlenautsONFTPoz",
        "label": "tokenURIs",
        "offset": 0,
        "slot": "24",
        "type": "t_mapping(t_uint256,t_string_storage)"
      },
      {
        "astId": 3945,
        "contract": "contracts/PozzlenautsONFTPoz.sol:PozzlenautsONFTPoz",
        "label": "glMerkleRoot",
        "offset": 0,
        "slot": "25",
        "type": "t_bytes32"
      },
      {
        "astId": 3947,
        "contract": "contracts/PozzlenautsONFTPoz.sol:PozzlenautsONFTPoz",
        "label": "flMerkleRoot",
        "offset": 0,
        "slot": "26",
        "type": "t_bytes32"
      },
      {
        "astId": 3950,
        "contract": "contracts/PozzlenautsONFTPoz.sol:PozzlenautsONFTPoz",
        "label": "usdcToken",
        "offset": 0,
        "slot": "27",
        "type": "t_contract(IERC20Extented)3890"
      },
      {
        "astId": 3953,
        "contract": "contracts/PozzlenautsONFTPoz.sol:PozzlenautsONFTPoz",
        "label": "pozToken",
        "offset": 0,
        "slot": "28",
        "type": "t_contract(IERC20Extented)3890"
      },
      {
        "astId": 3955,
        "contract": "contracts/PozzlenautsONFTPoz.sol:PozzlenautsONFTPoz",
        "label": "treasuryWallet",
        "offset": 0,
        "slot": "29",
        "type": "t_address"
      }
    ],
    "types": {
      "t_address": {
        "encoding": "inplace",
        "label": "address",
        "numberOfBytes": "20"
      },
      "t_bool": {
        "encoding": "inplace",
        "label": "bool",
        "numberOfBytes": "1"
      },
      "t_bytes32": {
        "encoding": "inplace",
        "label": "bytes32",
        "numberOfBytes": "32"
      },
      "t_bytes_memory_ptr": {
        "encoding": "bytes",
        "label": "bytes",
        "numberOfBytes": "32"
      },
      "t_bytes_storage": {
        "encoding": "bytes",
        "label": "bytes",
        "numberOfBytes": "32"
      },
      "t_contract(IERC20Extented)3890": {
        "encoding": "inplace",
        "label": "contract IERC20Extented",
        "numberOfBytes": "20"
      },
      "t_mapping(t_address,t_bool)": {
        "encoding": "mapping",
        "key": "t_address",
        "label": "mapping(address => bool)",
        "numberOfBytes": "32",
        "value": "t_bool"
      },
      "t_mapping(t_address,t_mapping(t_address,t_bool))": {
        "encoding": "mapping",
        "key": "t_address",
        "label": "mapping(address => mapping(address => bool))",
        "numberOfBytes": "32",
        "value": "t_mapping(t_address,t_bool)"
      },
      "t_mapping(t_address,t_uint256)": {
        "encoding": "mapping",
        "key": "t_address",
        "label": "mapping(address => uint256)",
        "numberOfBytes": "32",
        "value": "t_uint256"
      },
      "t_mapping(t_bytes_memory_ptr,t_mapping(t_uint64,t_bytes32))": {
        "encoding": "mapping",
        "key": "t_bytes_memory_ptr",
        "label": "mapping(bytes => mapping(uint64 => bytes32))",
        "numberOfBytes": "32",
        "value": "t_mapping(t_uint64,t_bytes32)"
      },
      "t_mapping(t_uint16,t_bytes_storage)": {
        "encoding": "mapping",
        "key": "t_uint16",
        "label": "mapping(uint16 => bytes)",
        "numberOfBytes": "32",
        "value": "t_bytes_storage"
      },
      "t_mapping(t_uint16,t_mapping(t_bytes_memory_ptr,t_mapping(t_uint64,t_bytes32)))": {
        "encoding": "mapping",
        "key": "t_uint16",
        "label": "mapping(uint16 => mapping(bytes => mapping(uint64 => bytes32)))",
        "numberOfBytes": "32",
        "value": "t_mapping(t_bytes_memory_ptr,t_mapping(t_uint64,t_bytes32))"
      },
      "t_mapping(t_uint256,t_address)": {
        "encoding": "mapping",
        "key": "t_uint256",
        "label": "mapping(uint256 => address)",
        "numberOfBytes": "32",
        "value": "t_address"
      },
      "t_mapping(t_uint256,t_string_storage)": {
        "encoding": "mapping",
        "key": "t_uint256",
        "label": "mapping(uint256 => string)",
        "numberOfBytes": "32",
        "value": "t_string_storage"
      },
      "t_mapping(t_uint256,t_uint256)": {
        "encoding": "mapping",
        "key": "t_uint256",
        "label": "mapping(uint256 => uint256)",
        "numberOfBytes": "32",
        "value": "t_uint256"
      },
      "t_mapping(t_uint64,t_bytes32)": {
        "encoding": "mapping",
        "key": "t_uint64",
        "label": "mapping(uint64 => bytes32)",
        "numberOfBytes": "32",
        "value": "t_bytes32"
      },
      "t_string_storage": {
        "encoding": "bytes",
        "label": "string",
        "numberOfBytes": "32"
      },
      "t_uint16": {
        "encoding": "inplace",
        "label": "uint16",
        "numberOfBytes": "2"
      },
      "t_uint256": {
        "encoding": "inplace",
        "label": "uint256",
        "numberOfBytes": "32"
      },
      "t_uint64": {
        "encoding": "inplace",
        "label": "uint64",
        "numberOfBytes": "8"
      }
    }
  }
}