{
  "address": "0xCD0319B5Cab81d4377dDE624FBB611501EaeA49b",
  "abi": [
    {
      "inputs": [
        {
          "internalType": "uint256",
          "name": "_premint",
          "type": "uint256"
        },
        {
          "internalType": "uint256",
          "name": "_interval",
          "type": "uint256"
        },
        {
          "internalType": "uint256",
          "name": "_faucetTotal",
          "type": "uint256"
        },
        {
          "internalType": "uint256",
          "name": "_faucetAmount",
          "type": "uint256"
        }
      ],
      "stateMutability": "nonpayable",
      "type": "constructor"
    },
    {
      "anonymous": false,
      "inputs": [
        {
          "indexed": true,
          "internalType": "address",
          "name": "owner",
          "type": "address"
        },
        {
          "indexed": true,
          "internalType": "address",
          "name": "spender",
          "type": "address"
        },
        {
          "indexed": false,
          "internalType": "uint256",
          "name": "value",
          "type": "uint256"
        }
      ],
      "name": "Approval",
      "type": "event"
    },
    {
      "anonymous": false,
      "inputs": [
        {
          "indexed": true,
          "internalType": "address",
          "name": "previousOwner",
          "type": "address"
        },
        {
          "indexed": true,
          "internalType": "address",
          "name": "newOwner",
          "type": "address"
        }
      ],
      "name": "OwnershipTransferred",
      "type": "event"
    },
    {
      "anonymous": false,
      "inputs": [
        {
          "indexed": true,
          "internalType": "address",
          "name": "from",
          "type": "address"
        },
        {
          "indexed": true,
          "internalType": "address",
          "name": "to",
          "type": "address"
        },
        {
          "indexed": false,
          "internalType": "uint256",
          "name": "value",
          "type": "uint256"
        }
      ],
      "name": "Transfer",
      "type": "event"
    },
    {
      "inputs": [
        {
          "internalType": "address",
          "name": "owner",
          "type": "address"
        },
        {
          "internalType": "address",
          "name": "spender",
          "type": "address"
        }
      ],
      "name": "allowance",
      "outputs": [
        {
          "internalType": "uint256",
          "name": "",
          "type": "uint256"
        }
      ],
      "stateMutability": "view",
      "type": "function"
    },
    {
      "inputs": [
        {
          "internalType": "address",
          "name": "spender",
          "type": "address"
        },
        {
          "internalType": "uint256",
          "name": "amount",
          "type": "uint256"
        }
      ],
      "name": "approve",
      "outputs": [
        {
          "internalType": "bool",
          "name": "",
          "type": "bool"
        }
      ],
      "stateMutability": "nonpayable",
      "type": "function"
    },
    {
      "inputs": [
        {
          "internalType": "address",
          "name": "account",
          "type": "address"
        }
      ],
      "name": "balanceOf",
      "outputs": [
        {
          "internalType": "uint256",
          "name": "",
          "type": "uint256"
        }
      ],
      "stateMutability": "view",
      "type": "function"
    },
    {
      "inputs": [],
      "name": "decimals",
      "outputs": [
        {
          "internalType": "uint8",
          "name": "",
          "type": "uint8"
        }
      ],
      "stateMutability": "view",
      "type": "function"
    },
    {
      "inputs": [
        {
          "internalType": "address",
          "name": "spender",
          "type": "address"
        },
        {
          "internalType": "uint256",
          "name": "subtractedValue",
          "type": "uint256"
        }
      ],
      "name": "decreaseAllowance",
      "outputs": [
        {
          "internalType": "bool",
          "name": "",
          "type": "bool"
        }
      ],
      "stateMutability": "nonpayable",
      "type": "function"
    },
    {
      "inputs": [],
      "name": "faucet",
      "outputs": [],
      "stateMutability": "nonpayable",
      "type": "function"
    },
    {
      "inputs": [],
      "name": "faucetAmount",
      "outputs": [
        {
          "internalType": "uint256",
          "name": "",
          "type": "uint256"
        }
      ],
      "stateMutability": "view",
      "type": "function"
    },
    {
      "inputs": [],
      "name": "faucetEnabled",
      "outputs": [
        {
          "internalType": "bool",
          "name": "",
          "type": "bool"
        }
      ],
      "stateMutability": "view",
      "type": "function"
    },
    {
      "inputs": [],
      "name": "faucetTotal",
      "outputs": [
        {
          "internalType": "uint256",
          "name": "",
          "type": "uint256"
        }
      ],
      "stateMutability": "view",
      "type": "function"
    },
    {
      "inputs": [],
      "name": "giveawayTotal",
      "outputs": [
        {
          "internalType": "uint256",
          "name": "",
          "type": "uint256"
        }
      ],
      "stateMutability": "view",
      "type": "function"
    },
    {
      "inputs": [
        {
          "internalType": "address",
          "name": "spender",
          "type": "address"
        },
        {
          "internalType": "uint256",
          "name": "addedValue",
          "type": "uint256"
        }
      ],
      "name": "increaseAllowance",
      "outputs": [
        {
          "internalType": "bool",
          "name": "",
          "type": "bool"
        }
      ],
      "stateMutability": "nonpayable",
      "type": "function"
    },
    {
      "inputs": [],
      "name": "interval",
      "outputs": [
        {
          "internalType": "uint256",
          "name": "",
          "type": "uint256"
        }
      ],
      "stateMutability": "view",
      "type": "function"
    },
    {
      "inputs": [],
      "name": "name",
      "outputs": [
        {
          "internalType": "string",
          "name": "",
          "type": "string"
        }
      ],
      "stateMutability": "view",
      "type": "function"
    },
    {
      "inputs": [],
      "name": "owner",
      "outputs": [
        {
          "internalType": "address",
          "name": "",
          "type": "address"
        }
      ],
      "stateMutability": "view",
      "type": "function"
    },
    {
      "inputs": [],
      "name": "renounceOwnership",
      "outputs": [],
      "stateMutability": "nonpayable",
      "type": "function"
    },
    {
      "inputs": [
        {
          "internalType": "uint256",
          "name": "_faucetAmount",
          "type": "uint256"
        }
      ],
      "name": "setFaucetAmount",
      "outputs": [],
      "stateMutability": "nonpayable",
      "type": "function"
    },
    {
      "inputs": [
        {
          "internalType": "bool",
          "name": "_faucetEnabled",
          "type": "bool"
        }
      ],
      "name": "setFaucetEnabled",
      "outputs": [],
      "stateMutability": "nonpayable",
      "type": "function"
    },
    {
      "inputs": [
        {
          "internalType": "uint256",
          "name": "_faucetTotal",
          "type": "uint256"
        }
      ],
      "name": "setFaucetTotal",
      "outputs": [],
      "stateMutability": "nonpayable",
      "type": "function"
    },
    {
      "inputs": [
        {
          "internalType": "uint256",
          "name": "_inverval",
          "type": "uint256"
        }
      ],
      "name": "setInterval",
      "outputs": [],
      "stateMutability": "nonpayable",
      "type": "function"
    },
    {
      "inputs": [],
      "name": "symbol",
      "outputs": [
        {
          "internalType": "string",
          "name": "",
          "type": "string"
        }
      ],
      "stateMutability": "view",
      "type": "function"
    },
    {
      "inputs": [],
      "name": "totalSupply",
      "outputs": [
        {
          "internalType": "uint256",
          "name": "",
          "type": "uint256"
        }
      ],
      "stateMutability": "view",
      "type": "function"
    },
    {
      "inputs": [
        {
          "internalType": "address",
          "name": "to",
          "type": "address"
        },
        {
          "internalType": "uint256",
          "name": "amount",
          "type": "uint256"
        }
      ],
      "name": "transfer",
      "outputs": [
        {
          "internalType": "bool",
          "name": "",
          "type": "bool"
        }
      ],
      "stateMutability": "nonpayable",
      "type": "function"
    },
    {
      "inputs": [
        {
          "internalType": "address",
          "name": "from",
          "type": "address"
        },
        {
          "internalType": "address",
          "name": "to",
          "type": "address"
        },
        {
          "internalType": "uint256",
          "name": "amount",
          "type": "uint256"
        }
      ],
      "name": "transferFrom",
      "outputs": [
        {
          "internalType": "bool",
          "name": "",
          "type": "bool"
        }
      ],
      "stateMutability": "nonpayable",
      "type": "function"
    },
    {
      "inputs": [
        {
          "internalType": "address",
          "name": "newOwner",
          "type": "address"
        }
      ],
      "name": "transferOwnership",
      "outputs": [],
      "stateMutability": "nonpayable",
      "type": "function"
    }
  ],
  "transactionHash": "0x2f311966687315cda491b43023ea0473b2ed675fb368f6f18b507dad297b698c",
  "args": [
    "1000000000000000000000000",
    10,
    "10000000000000000000000000",
    "10000000000000000000000"
  ],
  "numDeployments": 1,
  "solcInputHash": "2c2a93a1a8cb6a3cb18f9e487a437780",
  "bytecode": "0x6080604052600a805460ff191660011790553480156200001e57600080fd5b5060405162001320380380620013208339810160408190526200004191620002cc565b828282336040518060400160405280600a81526020016955534420436f696e2e6b60b01b81525060405180604001604052806006815260200165555344432e6b60d01b81525081600390805190602001906200009f92919062000226565b508051620000b590600490602084019062000226565b505050620000c981620000ec60201b60201c565b50600692909255600755600855620000e233856200013e565b5050505062000367565b600580546001600160a01b038381166001600160a01b0319831681179093556040519116919082907f8be0079c531659141344cd1fd0a4f28419497f9722a3daafe3b4186f6b6457e090600090a35050565b6001600160a01b038216620001995760405162461bcd60e51b815260206004820152601f60248201527f45524332303a206d696e7420746f20746865207a65726f206164647265737300604482015260640160405180910390fd5b8060026000828254620001ad919062000303565b90915550506001600160a01b03821660009081526020819052604081208054839290620001dc90849062000303565b90915550506040518181526001600160a01b038316906000907fddf252ad1be2c89b69c2b068fc378daa952ba7f163c4a11628f55a4df523b3ef9060200160405180910390a35050565b82805462000234906200032a565b90600052602060002090601f016020900481019282620002585760008555620002a3565b82601f106200027357805160ff1916838001178555620002a3565b82800160010185558215620002a3579182015b82811115620002a357825182559160200191906001019062000286565b50620002b1929150620002b5565b5090565b5b80821115620002b15760008155600101620002b6565b60008060008060808587031215620002e357600080fd5b505082516020840151604085015160609095015191969095509092509050565b600082198211156200032557634e487b7160e01b600052601160045260246000fd5b500190565b600181811c908216806200033f57607f821691505b602082108114156200036157634e487b7160e01b600052602260045260246000fd5b50919050565b610fa980620003776000396000f3fe608060405234801561001057600080fd5b50600436106101985760003560e01c806381d2fd9c116100e3578063a01c2d711161008c578063dd62ed3e11610066578063dd62ed3e1461031e578063de5f72fd14610357578063f2fde38b1461035f57600080fd5b8063a01c2d71146102e5578063a457c2d7146102f8578063a9059cbb1461030b57600080fd5b8063947a36fb116100bd578063947a36fb146102cb57806395d89b41146102d45780639c281430146102dc57600080fd5b806381d2fd9c1461028a5780638da5cb5b1461029d5780638f303e96146102b857600080fd5b8063313ce567116101455780635d1c3f041161011f5780635d1c3f041461024c57806370a0823114610259578063715018a61461028257600080fd5b8063313ce5671461022157806339509351146102305780634c303cb21461024357600080fd5b806322a900821161017657806322a90082146101f057806323b872dd14610205578063294e4c661461021857600080fd5b806306fdde031461019d578063095ea7b3146101bb57806318160ddd146101de575b600080fd5b6101a5610372565b6040516101b29190610db5565b60405180910390f35b6101ce6101c9366004610e26565b610404565b60405190151581526020016101b2565b6002545b6040519081526020016101b2565b6102036101fe366004610e50565b61041c565b005b6101ce610213366004610e69565b61046e565b6101e260095481565b604051601281526020016101b2565b6101ce61023e366004610e26565b610492565b6101e260075481565b600a546101ce9060ff1681565b6101e2610267366004610ea5565b6001600160a01b031660009081526020819052604090205490565b6102036104d1565b610203610298366004610e50565b610525565b6005546040516001600160a01b0390911681526020016101b2565b6102036102c6366004610ec7565b610572565b6101e260065481565b6101a56105cd565b6101e260085481565b6102036102f3366004610e50565b600755565b6101ce610306366004610e26565b6105dc565b6101ce610319366004610e26565b610686565b6101e261032c366004610ee9565b6001600160a01b03918216600090815260016020908152604080832093909416825291909152205490565b610203610694565b61020361036d366004610ea5565b6107e9565b60606003805461038190610f1c565b80601f01602080910402602001604051908101604052809291908181526020018280546103ad90610f1c565b80156103fa5780601f106103cf576101008083540402835291602001916103fa565b820191906000526020600020905b8154815290600101906020018083116103dd57829003601f168201915b5050505050905090565b6000336104128185856108b9565b5060019392505050565b6005546001600160a01b031633146104695760405162461bcd60e51b815260206004820152600b60248201526a4f6e6c79204f776e65722160a81b60448201526064015b60405180910390fd5b600655565b60003361047c8582856109dd565b610487858585610a6f565b506001949350505050565b3360008181526001602090815260408083206001600160a01b038716845290915281205490919061041290829086906104cc908790610f6d565b6108b9565b6005546001600160a01b031633146105195760405162461bcd60e51b815260206004820152600b60248201526a4f6e6c79204f776e65722160a81b6044820152606401610460565b6105236000610c6c565b565b6005546001600160a01b0316331461056d5760405162461bcd60e51b815260206004820152600b60248201526a4f6e6c79204f776e65722160a81b6044820152606401610460565b600855565b6005546001600160a01b031633146105ba5760405162461bcd60e51b815260206004820152600b60248201526a4f6e6c79204f776e65722160a81b6044820152606401610460565b600a805460ff1916911515919091179055565b60606004805461038190610f1c565b3360008181526001602090815260408083206001600160a01b0387168452909152812054909190838110156106795760405162461bcd60e51b815260206004820152602560248201527f45524332303a2064656372656173656420616c6c6f77616e63652062656c6f7760448201527f207a65726f0000000000000000000000000000000000000000000000000000006064820152608401610460565b61048782868684036108b9565b600033610412818585610a6f565b600a5460ff166106e65760405162461bcd60e51b815260206004820152601a60248201527f466175636574206973206e6f7420656e61626c6564206e6f772e0000000000006044820152606401610460565b6008546009546106f69190610f6d565b60075410156107475760405162461bcd60e51b815260206004820181905260248201527f46617563657420746f74616c2069732072756e6e696e67206f7574206e6f772e6044820152606401610460565b600654336000908152600b60205260409020546107649042610f85565b116107b15760405162461bcd60e51b815260206004820152601f60248201527f46617563657420696e74657276616c206973206e6f7420657870697265642e006044820152606401610460565b600854600960008282546107c59190610f6d565b9091555050336000818152600b602052604090204290556008546105239190610cd6565b6005546001600160a01b031633146108315760405162461bcd60e51b815260206004820152600b60248201526a4f6e6c79204f776e65722160a81b6044820152606401610460565b6001600160a01b0381166108ad5760405162461bcd60e51b815260206004820152602660248201527f4f776e61626c653a206e6577206f776e657220697320746865207a65726f206160448201527f64647265737300000000000000000000000000000000000000000000000000006064820152608401610460565b6108b681610c6c565b50565b6001600160a01b03831661091b5760405162461bcd60e51b8152602060048201526024808201527f45524332303a20617070726f76652066726f6d20746865207a65726f206164646044820152637265737360e01b6064820152608401610460565b6001600160a01b03821661097c5760405162461bcd60e51b815260206004820152602260248201527f45524332303a20617070726f766520746f20746865207a65726f206164647265604482015261737360f01b6064820152608401610460565b6001600160a01b0383811660008181526001602090815260408083209487168084529482529182902085905590518481527f8c5be1e5ebec7d5bd14f71427d1e84f3dd0314c0f7b2291e5b200ac8c7c3b925910160405180910390a3505050565b6001600160a01b038381166000908152600160209081526040808320938616835292905220546000198114610a695781811015610a5c5760405162461bcd60e51b815260206004820152601d60248201527f45524332303a20696e73756666696369656e7420616c6c6f77616e63650000006044820152606401610460565b610a6984848484036108b9565b50505050565b6001600160a01b038316610aeb5760405162461bcd60e51b815260206004820152602560248201527f45524332303a207472616e736665722066726f6d20746865207a65726f20616460448201527f64726573730000000000000000000000000000000000000000000000000000006064820152608401610460565b6001600160a01b038216610b4d5760405162461bcd60e51b815260206004820152602360248201527f45524332303a207472616e7366657220746f20746865207a65726f206164647260448201526265737360e81b6064820152608401610460565b6001600160a01b03831660009081526020819052604090205481811015610bdc5760405162461bcd60e51b815260206004820152602660248201527f45524332303a207472616e7366657220616d6f756e742065786365656473206260448201527f616c616e636500000000000000000000000000000000000000000000000000006064820152608401610460565b6001600160a01b03808516600090815260208190526040808220858503905591851681529081208054849290610c13908490610f6d565b92505081905550826001600160a01b0316846001600160a01b03167fddf252ad1be2c89b69c2b068fc378daa952ba7f163c4a11628f55a4df523b3ef84604051610c5f91815260200190565b60405180910390a3610a69565b600580546001600160a01b038381167fffffffffffffffffffffffff0000000000000000000000000000000000000000831681179093556040519116919082907f8be0079c531659141344cd1fd0a4f28419497f9722a3daafe3b4186f6b6457e090600090a35050565b6001600160a01b038216610d2c5760405162461bcd60e51b815260206004820152601f60248201527f45524332303a206d696e7420746f20746865207a65726f2061646472657373006044820152606401610460565b8060026000828254610d3e9190610f6d565b90915550506001600160a01b03821660009081526020819052604081208054839290610d6b908490610f6d565b90915550506040518181526001600160a01b038316906000907fddf252ad1be2c89b69c2b068fc378daa952ba7f163c4a11628f55a4df523b3ef9060200160405180910390a35050565b600060208083528351808285015260005b81811015610de257858101830151858201604001528201610dc6565b81811115610df4576000604083870101525b50601f01601f1916929092016040019392505050565b80356001600160a01b0381168114610e2157600080fd5b919050565b60008060408385031215610e3957600080fd5b610e4283610e0a565b946020939093013593505050565b600060208284031215610e6257600080fd5b5035919050565b600080600060608486031215610e7e57600080fd5b610e8784610e0a565b9250610e9560208501610e0a565b9150604084013590509250925092565b600060208284031215610eb757600080fd5b610ec082610e0a565b9392505050565b600060208284031215610ed957600080fd5b81358015158114610ec057600080fd5b60008060408385031215610efc57600080fd5b610f0583610e0a565b9150610f1360208401610e0a565b90509250929050565b600181811c90821680610f3057607f821691505b60208210811415610f5157634e487b7160e01b600052602260045260246000fd5b50919050565b634e487b7160e01b600052601160045260246000fd5b60008219821115610f8057610f80610f57565b500190565b600082821015610f9757610f97610f57565b50039056fea164736f6c634300080a000a",
  "devdoc": {
    "kind": "dev",
    "methods": {
      "allowance(address,address)": {
        "details": "See {IERC20-allowance}."
      },
      "approve(address,uint256)": {
        "details": "See {IERC20-approve}. NOTE: If `amount` is the maximum `uint256`, the allowance is not updated on `transferFrom`. This is semantically equivalent to an infinite approval. Requirements: - `spender` cannot be the zero address."
      },
      "balanceOf(address)": {
        "details": "See {IERC20-balanceOf}."
      },
      "decimals()": {
        "details": "Returns the number of decimals used to get its user representation. For example, if `decimals` equals `2`, a balance of `505` tokens should be displayed to a user as `5.05` (`505 / 10 ** 2`). Tokens usually opt for a value of 18, imitating the relationship between Ether and Wei. This is the value {ERC20} uses, unless this function is overridden; NOTE: This information is only used for _display_ purposes: it in no way affects any of the arithmetic of the contract, including {IERC20-balanceOf} and {IERC20-transfer}."
      },
      "decreaseAllowance(address,uint256)": {
        "details": "Atomically decreases the allowance granted to `spender` by the caller. This is an alternative to {approve} that can be used as a mitigation for problems described in {IERC20-approve}. Emits an {Approval} event indicating the updated allowance. Requirements: - `spender` cannot be the zero address. - `spender` must have allowance for the caller of at least `subtractedValue`."
      },
      "increaseAllowance(address,uint256)": {
        "details": "Atomically increases the allowance granted to `spender` by the caller. This is an alternative to {approve} that can be used as a mitigation for problems described in {IERC20-approve}. Emits an {Approval} event indicating the updated allowance. Requirements: - `spender` cannot be the zero address."
      },
      "name()": {
        "details": "Returns the name of the token."
      },
      "symbol()": {
        "details": "Returns the symbol of the token, usually a shorter version of the name."
      },
      "totalSupply()": {
        "details": "See {IERC20-totalSupply}."
      },
      "transfer(address,uint256)": {
        "details": "See {IERC20-transfer}. Requirements: - `to` cannot be the zero address. - the caller must have a balance of at least `amount`."
      },
      "transferFrom(address,address,uint256)": {
        "details": "See {IERC20-transferFrom}. Emits an {Approval} event indicating the updated allowance. This is not required by the EIP. See the note at the beginning of {ERC20}. NOTE: Does not update the allowance if the current allowance is the maximum `uint256`. Requirements: - `from` and `to` cannot be the zero address. - `from` must have a balance of at least `amount`. - the caller must have allowance for ``from``'s tokens of at least `amount`."
      }
    },
    "version": 1
  },
  "userdoc": {
    "kind": "user",
    "methods": {},
    "version": 1
  },
  "storageLayout": {
    "storage": [
      {
        "astId": 160,
        "contract": "contracts/tokens/MockUSDC.sol:MockUSDC",
        "label": "_balances",
        "offset": 0,
        "slot": "0",
        "type": "t_mapping(t_address,t_uint256)"
      },
      {
        "astId": 166,
        "contract": "contracts/tokens/MockUSDC.sol:MockUSDC",
        "label": "_allowances",
        "offset": 0,
        "slot": "1",
        "type": "t_mapping(t_address,t_mapping(t_address,t_uint256))"
      },
      {
        "astId": 168,
        "contract": "contracts/tokens/MockUSDC.sol:MockUSDC",
        "label": "_totalSupply",
        "offset": 0,
        "slot": "2",
        "type": "t_uint256"
      },
      {
        "astId": 170,
        "contract": "contracts/tokens/MockUSDC.sol:MockUSDC",
        "label": "_name",
        "offset": 0,
        "slot": "3",
        "type": "t_string_storage"
      },
      {
        "astId": 172,
        "contract": "contracts/tokens/MockUSDC.sol:MockUSDC",
        "label": "_symbol",
        "offset": 0,
        "slot": "4",
        "type": "t_string_storage"
      },
      {
        "astId": 3949,
        "contract": "contracts/tokens/MockUSDC.sol:MockUSDC",
        "label": "_owner",
        "offset": 0,
        "slot": "5",
        "type": "t_address"
      },
      {
        "astId": 6689,
        "contract": "contracts/tokens/MockUSDC.sol:MockUSDC",
        "label": "interval",
        "offset": 0,
        "slot": "6",
        "type": "t_uint256"
      },
      {
        "astId": 6691,
        "contract": "contracts/tokens/MockUSDC.sol:MockUSDC",
        "label": "faucetTotal",
        "offset": 0,
        "slot": "7",
        "type": "t_uint256"
      },
      {
        "astId": 6693,
        "contract": "contracts/tokens/MockUSDC.sol:MockUSDC",
        "label": "faucetAmount",
        "offset": 0,
        "slot": "8",
        "type": "t_uint256"
      },
      {
        "astId": 6695,
        "contract": "contracts/tokens/MockUSDC.sol:MockUSDC",
        "label": "giveawayTotal",
        "offset": 0,
        "slot": "9",
        "type": "t_uint256"
      },
      {
        "astId": 6698,
        "contract": "contracts/tokens/MockUSDC.sol:MockUSDC",
        "label": "faucetEnabled",
        "offset": 0,
        "slot": "10",
        "type": "t_bool"
      },
      {
        "astId": 6702,
        "contract": "contracts/tokens/MockUSDC.sol:MockUSDC",
        "label": "userLastTime",
        "offset": 0,
        "slot": "11",
        "type": "t_mapping(t_address,t_uint256)"
      }
    ],
    "types": {
      "t_address": {
        "encoding": "inplace",
        "label": "address",
        "numberOfBytes": "20"
      },
      "t_bool": {
        "encoding": "inplace",
        "label": "bool",
        "numberOfBytes": "1"
      },
      "t_mapping(t_address,t_mapping(t_address,t_uint256))": {
        "encoding": "mapping",
        "key": "t_address",
        "label": "mapping(address => mapping(address => uint256))",
        "numberOfBytes": "32",
        "value": "t_mapping(t_address,t_uint256)"
      },
      "t_mapping(t_address,t_uint256)": {
        "encoding": "mapping",
        "key": "t_address",
        "label": "mapping(address => uint256)",
        "numberOfBytes": "32",
        "value": "t_uint256"
      },
      "t_string_storage": {
        "encoding": "bytes",
        "label": "string",
        "numberOfBytes": "32"
      },
      "t_uint256": {
        "encoding": "inplace",
        "label": "uint256",
        "numberOfBytes": "32"
      }
    }
  }
}