{
  "address": "0xA11937C76F8569fC47fe2D7d3EB80288812Ef380",
  "abi": [
    {
      "inputs": [
        {
          "internalType": "string",
          "name": "_baseURI",
          "type": "string"
        },
        {
          "internalType": "address",
          "name": "_layerZeroEndpoint",
          "type": "address"
        },
        {
          "internalType": "uint256",
          "name": "_startMintId",
          "type": "uint256"
        },
        {
          "internalType": "uint256",
          "name": "_endMintId",
          "type": "uint256"
        },
        {
          "internalType": "address",
          "name": "_usdcAddress",
          "type": "address"
        },
        {
          "internalType": "address",
          "name": "_treasuryAddress",
          "type": "address"
        }
      ],
      "stateMutability": "nonpayable",
      "type": "constructor"
    },
    {
      "anonymous": false,
      "inputs": [
        {
          "indexed": true,
          "internalType": "address",
          "name": "owner",
          "type": "address"
        },
        {
          "indexed": true,
          "internalType": "address",
          "name": "approved",
          "type": "address"
        },
        {
          "indexed": true,
          "internalType": "uint256",
          "name": "tokenId",
          "type": "uint256"
        }
      ],
      "name": "Approval",
      "type": "event"
    },
    {
      "anonymous": false,
      "inputs": [
        {
          "indexed": true,
          "internalType": "address",
          "name": "owner",
          "type": "address"
        },
        {
          "indexed": true,
          "internalType": "address",
          "name": "operator",
          "type": "address"
        },
        {
          "indexed": false,
          "internalType": "bool",
          "name": "approved",
          "type": "bool"
        }
      ],
      "name": "ApprovalForAll",
      "type": "event"
    },
    {
      "anonymous": false,
      "inputs": [
        {
          "indexed": false,
          "internalType": "uint16",
          "name": "_srcChainId",
          "type": "uint16"
        },
        {
          "indexed": false,
          "internalType": "bytes",
          "name": "_srcAddress",
          "type": "bytes"
        },
        {
          "indexed": false,
          "internalType": "uint64",
          "name": "_nonce",
          "type": "uint64"
        },
        {
          "indexed": false,
          "internalType": "bytes",
          "name": "_payload",
          "type": "bytes"
        }
      ],
      "name": "MessageFailed",
      "type": "event"
    },
    {
      "anonymous": false,
      "inputs": [
        {
          "indexed": true,
          "internalType": "address",
          "name": "previousOwner",
          "type": "address"
        },
        {
          "indexed": true,
          "internalType": "address",
          "name": "newOwner",
          "type": "address"
        }
      ],
      "name": "OwnershipTransferred",
      "type": "event"
    },
    {
      "anonymous": false,
      "inputs": [
        {
          "indexed": true,
          "internalType": "uint16",
          "name": "_srcChainId",
          "type": "uint16"
        },
        {
          "indexed": true,
          "internalType": "bytes",
          "name": "_srcAddress",
          "type": "bytes"
        },
        {
          "indexed": true,
          "internalType": "address",
          "name": "_toAddress",
          "type": "address"
        },
        {
          "indexed": false,
          "internalType": "uint256",
          "name": "_tokenId",
          "type": "uint256"
        },
        {
          "indexed": false,
          "internalType": "uint64",
          "name": "_nonce",
          "type": "uint64"
        }
      ],
      "name": "ReceiveFromChain",
      "type": "event"
    },
    {
      "anonymous": false,
      "inputs": [
        {
          "indexed": true,
          "internalType": "address",
          "name": "_sender",
          "type": "address"
        },
        {
          "indexed": true,
          "internalType": "uint16",
          "name": "_dstChainId",
          "type": "uint16"
        },
        {
          "indexed": true,
          "internalType": "bytes",
          "name": "_toAddress",
          "type": "bytes"
        },
        {
          "indexed": false,
          "internalType": "uint256",
          "name": "_tokenId",
          "type": "uint256"
        },
        {
          "indexed": false,
          "internalType": "uint64",
          "name": "_nonce",
          "type": "uint64"
        }
      ],
      "name": "SendToChain",
      "type": "event"
    },
    {
      "anonymous": false,
      "inputs": [
        {
          "indexed": false,
          "internalType": "uint16",
          "name": "_srcChainId",
          "type": "uint16"
        },
        {
          "indexed": false,
          "internalType": "bytes",
          "name": "_srcAddress",
          "type": "bytes"
        }
      ],
      "name": "SetTrustedRemote",
      "type": "event"
    },
    {
      "anonymous": false,
      "inputs": [
        {
          "indexed": true,
          "internalType": "address",
          "name": "from",
          "type": "address"
        },
        {
          "indexed": true,
          "internalType": "address",
          "name": "to",
          "type": "address"
        },
        {
          "indexed": true,
          "internalType": "uint256",
          "name": "tokenId",
          "type": "uint256"
        }
      ],
      "name": "Transfer",
      "type": "event"
    },
    {
      "inputs": [
        {
          "internalType": "address",
          "name": "to",
          "type": "address"
        },
        {
          "internalType": "uint256",
          "name": "tokenId",
          "type": "uint256"
        }
      ],
      "name": "approve",
      "outputs": [],
      "stateMutability": "nonpayable",
      "type": "function"
    },
    {
      "inputs": [
        {
          "internalType": "address",
          "name": "owner",
          "type": "address"
        }
      ],
      "name": "balanceOf",
      "outputs": [
        {
          "internalType": "uint256",
          "name": "",
          "type": "uint256"
        }
      ],
      "stateMutability": "view",
      "type": "function"
    },
    {
      "inputs": [
        {
          "internalType": "address",
          "name": "",
          "type": "address"
        }
      ],
      "name": "countMinted",
      "outputs": [
        {
          "internalType": "uint256",
          "name": "",
          "type": "uint256"
        }
      ],
      "stateMutability": "view",
      "type": "function"
    },
    {
      "inputs": [],
      "name": "currentURI",
      "outputs": [
        {
          "internalType": "string",
          "name": "",
          "type": "string"
        }
      ],
      "stateMutability": "view",
      "type": "function"
    },
    {
      "inputs": [
        {
          "internalType": "uint16",
          "name": "_dstChainId",
          "type": "uint16"
        },
        {
          "internalType": "bytes",
          "name": "_toAddress",
          "type": "bytes"
        },
        {
          "internalType": "uint256",
          "name": "_tokenId",
          "type": "uint256"
        },
        {
          "internalType": "bool",
          "name": "_useZro",
          "type": "bool"
        },
        {
          "internalType": "bytes",
          "name": "_adapterParams",
          "type": "bytes"
        }
      ],
      "name": "estimateSendFee",
      "outputs": [
        {
          "internalType": "uint256",
          "name": "nativeFee",
          "type": "uint256"
        },
        {
          "internalType": "uint256",
          "name": "zroFee",
          "type": "uint256"
        }
      ],
      "stateMutability": "view",
      "type": "function"
    },
    {
      "inputs": [
        {
          "internalType": "uint16",
          "name": "",
          "type": "uint16"
        },
        {
          "internalType": "bytes",
          "name": "",
          "type": "bytes"
        },
        {
          "internalType": "uint64",
          "name": "",
          "type": "uint64"
        }
      ],
      "name": "failedMessages",
      "outputs": [
        {
          "internalType": "bytes32",
          "name": "",
          "type": "bytes32"
        }
      ],
      "stateMutability": "view",
      "type": "function"
    },
    {
      "inputs": [],
      "name": "flMerkleRoot",
      "outputs": [
        {
          "internalType": "bytes32",
          "name": "",
          "type": "bytes32"
        }
      ],
      "stateMutability": "view",
      "type": "function"
    },
    {
      "inputs": [
        {
          "internalType": "uint16",
          "name": "_srcChainId",
          "type": "uint16"
        },
        {
          "internalType": "bytes",
          "name": "_srcAddress",
          "type": "bytes"
        }
      ],
      "name": "forceResumeReceive",
      "outputs": [],
      "stateMutability": "nonpayable",
      "type": "function"
    },
    {
      "inputs": [
        {
          "internalType": "bytes32[]",
          "name": "_merkleProof",
          "type": "bytes32[]"
        }
      ],
      "name": "freeListMint",
      "outputs": [
        {
          "internalType": "uint256",
          "name": "",
          "type": "uint256"
        }
      ],
      "stateMutability": "payable",
      "type": "function"
    },
    {
      "inputs": [
        {
          "internalType": "uint256",
          "name": "tokenId",
          "type": "uint256"
        }
      ],
      "name": "getApproved",
      "outputs": [
        {
          "internalType": "address",
          "name": "",
          "type": "address"
        }
      ],
      "stateMutability": "view",
      "type": "function"
    },
    {
      "inputs": [
        {
          "internalType": "uint16",
          "name": "_version",
          "type": "uint16"
        },
        {
          "internalType": "uint16",
          "name": "_chainId",
          "type": "uint16"
        },
        {
          "internalType": "address",
          "name": "",
          "type": "address"
        },
        {
          "internalType": "uint256",
          "name": "_configType",
          "type": "uint256"
        }
      ],
      "name": "getConfig",
      "outputs": [
        {
          "internalType": "bytes",
          "name": "",
          "type": "bytes"
        }
      ],
      "stateMutability": "view",
      "type": "function"
    },
    {
      "inputs": [],
      "name": "glMerkleRoot",
      "outputs": [
        {
          "internalType": "bytes32",
          "name": "",
          "type": "bytes32"
        }
      ],
      "stateMutability": "view",
      "type": "function"
    },
    {
      "inputs": [
        {
          "internalType": "bytes32[]",
          "name": "_merkleProof",
          "type": "bytes32[]"
        }
      ],
      "name": "greenListMint",
      "outputs": [
        {
          "internalType": "uint256",
          "name": "",
          "type": "uint256"
        }
      ],
      "stateMutability": "payable",
      "type": "function"
    },
    {
      "inputs": [],
      "name": "greenPrice",
      "outputs": [
        {
          "internalType": "uint256",
          "name": "",
          "type": "uint256"
        }
      ],
      "stateMutability": "view",
      "type": "function"
    },
    {
      "inputs": [],
      "name": "initPoz",
      "outputs": [
        {
          "internalType": "uint256",
          "name": "",
          "type": "uint256"
        }
      ],
      "stateMutability": "view",
      "type": "function"
    },
    {
      "inputs": [
        {
          "internalType": "address",
          "name": "owner",
          "type": "address"
        },
        {
          "internalType": "address",
          "name": "operator",
          "type": "address"
        }
      ],
      "name": "isApprovedForAll",
      "outputs": [
        {
          "internalType": "bool",
          "name": "",
          "type": "bool"
        }
      ],
      "stateMutability": "view",
      "type": "function"
    },
    {
      "inputs": [
        {
          "internalType": "address",
          "name": "",
          "type": "address"
        }
      ],
      "name": "isFLClaimed",
      "outputs": [
        {
          "internalType": "bool",
          "name": "",
          "type": "bool"
        }
      ],
      "stateMutability": "view",
      "type": "function"
    },
    {
      "inputs": [
        {
          "internalType": "bytes32[]",
          "name": "_merkleProof",
          "type": "bytes32[]"
        }
      ],
      "name": "isFListed",
      "outputs": [
        {
          "internalType": "bool",
          "name": "",
          "type": "bool"
        }
      ],
      "stateMutability": "view",
      "type": "function"
    },
    {
      "inputs": [
        {
          "internalType": "address",
          "name": "",
          "type": "address"
        }
      ],
      "name": "isGLClaimed",
      "outputs": [
        {
          "internalType": "bool",
          "name": "",
          "type": "bool"
        }
      ],
      "stateMutability": "view",
      "type": "function"
    },
    {
      "inputs": [
        {
          "internalType": "bytes32[]",
          "name": "_merkleProof",
          "type": "bytes32[]"
        }
      ],
      "name": "isGListed",
      "outputs": [
        {
          "internalType": "bool",
          "name": "",
          "type": "bool"
        }
      ],
      "stateMutability": "view",
      "type": "function"
    },
    {
      "inputs": [],
      "name": "isPaused",
      "outputs": [
        {
          "internalType": "bool",
          "name": "",
          "type": "bool"
        }
      ],
      "stateMutability": "view",
      "type": "function"
    },
    {
      "inputs": [
        {
          "internalType": "uint16",
          "name": "_srcChainId",
          "type": "uint16"
        },
        {
          "internalType": "bytes",
          "name": "_srcAddress",
          "type": "bytes"
        }
      ],
      "name": "isTrustedRemote",
      "outputs": [
        {
          "internalType": "bool",
          "name": "",
          "type": "bool"
        }
      ],
      "stateMutability": "view",
      "type": "function"
    },
    {
      "inputs": [],
      "name": "lzEndpoint",
      "outputs": [
        {
          "internalType": "contract ILayerZeroEndpoint",
          "name": "",
          "type": "address"
        }
      ],
      "stateMutability": "view",
      "type": "function"
    },
    {
      "inputs": [
        {
          "internalType": "uint16",
          "name": "_srcChainId",
          "type": "uint16"
        },
        {
          "internalType": "bytes",
          "name": "_srcAddress",
          "type": "bytes"
        },
        {
          "internalType": "uint64",
          "name": "_nonce",
          "type": "uint64"
        },
        {
          "internalType": "bytes",
          "name": "_payload",
          "type": "bytes"
        }
      ],
      "name": "lzReceive",
      "outputs": [],
      "stateMutability": "nonpayable",
      "type": "function"
    },
    {
      "inputs": [],
      "name": "maxMintId",
      "outputs": [
        {
          "internalType": "uint256",
          "name": "",
          "type": "uint256"
        }
      ],
      "stateMutability": "view",
      "type": "function"
    },
    {
      "inputs": [],
      "name": "name",
      "outputs": [
        {
          "internalType": "string",
          "name": "",
          "type": "string"
        }
      ],
      "stateMutability": "view",
      "type": "function"
    },
    {
      "inputs": [],
      "name": "nextMintId",
      "outputs": [
        {
          "internalType": "uint256",
          "name": "",
          "type": "uint256"
        }
      ],
      "stateMutability": "view",
      "type": "function"
    },
    {
      "inputs": [
        {
          "internalType": "uint16",
          "name": "_srcChainId",
          "type": "uint16"
        },
        {
          "internalType": "bytes",
          "name": "_srcAddress",
          "type": "bytes"
        },
        {
          "internalType": "uint64",
          "name": "_nonce",
          "type": "uint64"
        },
        {
          "internalType": "bytes",
          "name": "_payload",
          "type": "bytes"
        }
      ],
      "name": "nonblockingLzReceive",
      "outputs": [],
      "stateMutability": "nonpayable",
      "type": "function"
    },
    {
      "inputs": [],
      "name": "owner",
      "outputs": [
        {
          "internalType": "address",
          "name": "",
          "type": "address"
        }
      ],
      "stateMutability": "view",
      "type": "function"
    },
    {
      "inputs": [
        {
          "internalType": "uint256",
          "name": "tokenId",
          "type": "uint256"
        }
      ],
      "name": "ownerOf",
      "outputs": [
        {
          "internalType": "address",
          "name": "",
          "type": "address"
        }
      ],
      "stateMutability": "view",
      "type": "function"
    },
    {
      "inputs": [],
      "name": "publicDate",
      "outputs": [
        {
          "internalType": "uint256",
          "name": "",
          "type": "uint256"
        }
      ],
      "stateMutability": "view",
      "type": "function"
    },
    {
      "inputs": [
        {
          "internalType": "uint256",
          "name": "_mintCount",
          "type": "uint256"
        }
      ],
      "name": "publicMint",
      "outputs": [
        {
          "internalType": "uint256",
          "name": "",
          "type": "uint256"
        }
      ],
      "stateMutability": "payable",
      "type": "function"
    },
    {
      "inputs": [],
      "name": "publicPrice",
      "outputs": [
        {
          "internalType": "uint256",
          "name": "",
          "type": "uint256"
        }
      ],
      "stateMutability": "view",
      "type": "function"
    },
    {
      "inputs": [],
      "name": "renounceOwnership",
      "outputs": [],
      "stateMutability": "nonpayable",
      "type": "function"
    },
    {
      "inputs": [
        {
          "internalType": "uint16",
          "name": "_srcChainId",
          "type": "uint16"
        },
        {
          "internalType": "bytes",
          "name": "_srcAddress",
          "type": "bytes"
        },
        {
          "internalType": "uint64",
          "name": "_nonce",
          "type": "uint64"
        },
        {
          "internalType": "bytes",
          "name": "_payload",
          "type": "bytes"
        }
      ],
      "name": "retryMessage",
      "outputs": [],
      "stateMutability": "payable",
      "type": "function"
    },
    {
      "inputs": [
        {
          "internalType": "address",
          "name": "from",
          "type": "address"
        },
        {
          "internalType": "address",
          "name": "to",
          "type": "address"
        },
        {
          "internalType": "uint256",
          "name": "tokenId",
          "type": "uint256"
        }
      ],
      "name": "safeTransferFrom",
      "outputs": [],
      "stateMutability": "nonpayable",
      "type": "function"
    },
    {
      "inputs": [
        {
          "internalType": "address",
          "name": "from",
          "type": "address"
        },
        {
          "internalType": "address",
          "name": "to",
          "type": "address"
        },
        {
          "internalType": "uint256",
          "name": "tokenId",
          "type": "uint256"
        },
        {
          "internalType": "bytes",
          "name": "_data",
          "type": "bytes"
        }
      ],
      "name": "safeTransferFrom",
      "outputs": [],
      "stateMutability": "nonpayable",
      "type": "function"
    },
    {
      "inputs": [
        {
          "internalType": "address",
          "name": "_from",
          "type": "address"
        },
        {
          "internalType": "uint16",
          "name": "_dstChainId",
          "type": "uint16"
        },
        {
          "internalType": "bytes",
          "name": "_toAddress",
          "type": "bytes"
        },
        {
          "internalType": "uint256",
          "name": "_tokenId",
          "type": "uint256"
        },
        {
          "internalType": "address payable",
          "name": "_refundAddress",
          "type": "address"
        },
        {
          "internalType": "address",
          "name": "_zroPaymentAddress",
          "type": "address"
        },
        {
          "internalType": "bytes",
          "name": "_adapterParams",
          "type": "bytes"
        }
      ],
      "name": "sendFrom",
      "outputs": [],
      "stateMutability": "payable",
      "type": "function"
    },
    {
      "inputs": [
        {
          "internalType": "address",
          "name": "operator",
          "type": "address"
        },
        {
          "internalType": "bool",
          "name": "approved",
          "type": "bool"
        }
      ],
      "name": "setApprovalForAll",
      "outputs": [],
      "stateMutability": "nonpayable",
      "type": "function"
    },
    {
      "inputs": [
        {
          "internalType": "uint16",
          "name": "_version",
          "type": "uint16"
        },
        {
          "internalType": "uint16",
          "name": "_chainId",
          "type": "uint16"
        },
        {
          "internalType": "uint256",
          "name": "_configType",
          "type": "uint256"
        },
        {
          "internalType": "bytes",
          "name": "_config",
          "type": "bytes"
        }
      ],
      "name": "setConfig",
      "outputs": [],
      "stateMutability": "nonpayable",
      "type": "function"
    },
    {
      "inputs": [
        {
          "internalType": "address",
          "name": "_sender",
          "type": "address"
        },
        {
          "internalType": "uint256",
          "name": "_count",
          "type": "uint256"
        }
      ],
      "name": "setCountMinted",
      "outputs": [],
      "stateMutability": "nonpayable",
      "type": "function"
    },
    {
      "inputs": [
        {
          "internalType": "string",
          "name": "_currentURI",
          "type": "string"
        }
      ],
      "name": "setCurrentURI",
      "outputs": [],
      "stateMutability": "nonpayable",
      "type": "function"
    },
    {
      "inputs": [
        {
          "internalType": "address",
          "name": "_sender",
          "type": "address"
        },
        {
          "internalType": "bool",
          "name": "_isClamed",
          "type": "bool"
        }
      ],
      "name": "setFLClaimed",
      "outputs": [],
      "stateMutability": "nonpayable",
      "type": "function"
    },
    {
      "inputs": [
        {
          "internalType": "bytes32",
          "name": "_merkleRoot",
          "type": "bytes32"
        }
      ],
      "name": "setFLMerkleRoot",
      "outputs": [],
      "stateMutability": "nonpayable",
      "type": "function"
    },
    {
      "inputs": [
        {
          "internalType": "address",
          "name": "_sender",
          "type": "address"
        },
        {
          "internalType": "bool",
          "name": "_isClamed",
          "type": "bool"
        }
      ],
      "name": "setGLClaimed",
      "outputs": [],
      "stateMutability": "nonpayable",
      "type": "function"
    },
    {
      "inputs": [
        {
          "internalType": "bytes32",
          "name": "_merkleRoot",
          "type": "bytes32"
        }
      ],
      "name": "setGLMerkleRoot",
      "outputs": [],
      "stateMutability": "nonpayable",
      "type": "function"
    },
    {
      "inputs": [
        {
          "internalType": "uint256",
          "name": "_publicPrice",
          "type": "uint256"
        },
        {
          "internalType": "uint256",
          "name": "_greenPrice",
          "type": "uint256"
        }
      ],
      "name": "setMintPrice",
      "outputs": [],
      "stateMutability": "nonpayable",
      "type": "function"
    },
    {
      "inputs": [
        {
          "internalType": "bool",
          "name": "_isPaused",
          "type": "bool"
        }
      ],
      "name": "setPaused",
      "outputs": [],
      "stateMutability": "nonpayable",
      "type": "function"
    },
    {
      "inputs": [
        {
          "internalType": "uint256",
          "name": "_publicDate",
          "type": "uint256"
        }
      ],
      "name": "setPublicDate",
      "outputs": [],
      "stateMutability": "nonpayable",
      "type": "function"
    },
    {
      "inputs": [
        {
          "internalType": "uint16",
          "name": "_version",
          "type": "uint16"
        }
      ],
      "name": "setReceiveVersion",
      "outputs": [],
      "stateMutability": "nonpayable",
      "type": "function"
    },
    {
      "inputs": [
        {
          "internalType": "uint16",
          "name": "_version",
          "type": "uint16"
        }
      ],
      "name": "setSendVersion",
      "outputs": [],
      "stateMutability": "nonpayable",
      "type": "function"
    },
    {
      "inputs": [
        {
          "internalType": "uint256",
          "name": "_startMintId",
          "type": "uint256"
        },
        {
          "internalType": "uint256",
          "name": "_maxMintId",
          "type": "uint256"
        },
        {
          "internalType": "string",
          "name": "_newURI",
          "type": "string"
        }
      ],
      "name": "setSpecialPack",
      "outputs": [],
      "stateMutability": "nonpayable",
      "type": "function"
    },
    {
      "inputs": [
        {
          "internalType": "address",
          "name": "treasure",
          "type": "address"
        }
      ],
      "name": "setTreasuryWallet",
      "outputs": [],
      "stateMutability": "nonpayable",
      "type": "function"
    },
    {
      "inputs": [
        {
          "internalType": "uint16",
          "name": "_srcChainId",
          "type": "uint16"
        },
        {
          "internalType": "bytes",
          "name": "_srcAddress",
          "type": "bytes"
        }
      ],
      "name": "setTrustedRemote",
      "outputs": [],
      "stateMutability": "nonpayable",
      "type": "function"
    },
    {
      "inputs": [
        {
          "internalType": "address",
          "name": "_newAddress",
          "type": "address"
        }
      ],
      "name": "setUSDCToken",
      "outputs": [],
      "stateMutability": "nonpayable",
      "type": "function"
    },
    {
      "inputs": [
        {
          "internalType": "bytes4",
          "name": "interfaceId",
          "type": "bytes4"
        }
      ],
      "name": "supportsInterface",
      "outputs": [
        {
          "internalType": "bool",
          "name": "",
          "type": "bool"
        }
      ],
      "stateMutability": "view",
      "type": "function"
    },
    {
      "inputs": [],
      "name": "symbol",
      "outputs": [
        {
          "internalType": "string",
          "name": "",
          "type": "string"
        }
      ],
      "stateMutability": "view",
      "type": "function"
    },
    {
      "inputs": [
        {
          "internalType": "uint256",
          "name": "",
          "type": "uint256"
        }
      ],
      "name": "tokenBalance",
      "outputs": [
        {
          "internalType": "uint256",
          "name": "",
          "type": "uint256"
        }
      ],
      "stateMutability": "view",
      "type": "function"
    },
    {
      "inputs": [
        {
          "internalType": "uint256",
          "name": "tokenId",
          "type": "uint256"
        }
      ],
      "name": "tokenURI",
      "outputs": [
        {
          "internalType": "string",
          "name": "",
          "type": "string"
        }
      ],
      "stateMutability": "view",
      "type": "function"
    },
    {
      "inputs": [
        {
          "internalType": "uint256",
          "name": "",
          "type": "uint256"
        }
      ],
      "name": "tokenURIs",
      "outputs": [
        {
          "internalType": "string",
          "name": "",
          "type": "string"
        }
      ],
      "stateMutability": "view",
      "type": "function"
    },
    {
      "inputs": [
        {
          "internalType": "address",
          "name": "from",
          "type": "address"
        },
        {
          "internalType": "address",
          "name": "to",
          "type": "address"
        },
        {
          "internalType": "uint256",
          "name": "tokenId",
          "type": "uint256"
        }
      ],
      "name": "transferFrom",
      "outputs": [],
      "stateMutability": "nonpayable",
      "type": "function"
    },
    {
      "inputs": [
        {
          "internalType": "address",
          "name": "newOwner",
          "type": "address"
        }
      ],
      "name": "transferOwnership",
      "outputs": [],
      "stateMutability": "nonpayable",
      "type": "function"
    },
    {
      "inputs": [],
      "name": "treasuryWallet",
      "outputs": [
        {
          "internalType": "address",
          "name": "",
          "type": "address"
        }
      ],
      "stateMutability": "view",
      "type": "function"
    },
    {
      "inputs": [
        {
          "internalType": "uint16",
          "name": "",
          "type": "uint16"
        }
      ],
      "name": "trustedRemoteLookup",
      "outputs": [
        {
          "internalType": "bytes",
          "name": "",
          "type": "bytes"
        }
      ],
      "stateMutability": "view",
      "type": "function"
    },
    {
      "inputs": [
        {
          "internalType": "uint256",
          "name": "",
          "type": "uint256"
        }
      ],
      "name": "withdrawTimes",
      "outputs": [
        {
          "internalType": "uint256",
          "name": "",
          "type": "uint256"
        }
      ],
      "stateMutability": "view",
      "type": "function"
    }
  ],
  "transactionHash": "0x98510deb737d1e3283c4e37854760d471af63f759db4ac097741548788b2ff32",
  "args": [
    "https://ipfs.io/ipfs/QmbUwy61Pd4Jk1bNprC1Q7q1VzUgDTS8ZF5WVZ1cWGT332/",
    "0x3c2269811836af69497E5F486A85D7316753cf62",
    1422,
    1621,
    "0xB97EF9Ef8734C71904D8002F8b6Bc66Dd9c48a6E",
    "0xB47c0b6F79976b6c8E871a41ce5402428e89D786"
  ],
  "numDeployments": 1,
  "solcInputHash": "950a64fcf7744a1ff314e1af8efd9ee1",
  "bytecode": "0x60a060405260c7600d556096600e55603c600f55426010556012805460ff191690553480156200002e57600080fd5b5060405162004d9738038062004d9783398101604081905262000051916200033f565b6040518060400160405280600b81526020016a506f7a7a6c656e6175747360a81b81525060405180604001604052806006815260200165141bde93919560d21b8152508787878787878787868282828080620000bc620000b66200015360201b60201c565b62000157565b60601b6001600160601b03191660805250508151620000e39060039060208501906200027c565b508051620000f99060049060208401906200027c565b50506001600a55505050600b85905550600c839055601c80546001600160a01b0319166001600160a01b0383161790556200013486620001a7565b6200013f826200020f565b5050505050505050505050505050620004b4565b3390565b600080546001600160a01b038381166001600160a01b0319831681178455604051919092169283917f8be0079c531659141344cd1fd0a4f28419497f9722a3daafe3b4186f6b6457e09190a35050565b6000546001600160a01b03163314620001f65760405162461bcd60e51b8152602060048201819052602482015260008051602062004d7783398151915260448201526064015b60405180910390fd5b80516200020b9060119060208401906200027c565b5050565b6000546001600160a01b031633146200025a5760405162461bcd60e51b8152602060048201819052602482015260008051602062004d778339815191526044820152606401620001ed565b601b80546001600160a01b0319166001600160a01b0392909216919091179055565b8280546200028a9062000461565b90600052602060002090601f016020900481019282620002ae5760008555620002f9565b82601f10620002c957805160ff1916838001178555620002f9565b82800160010185558215620002f9579182015b82811115620002f9578251825591602001919060010190620002dc565b50620003079291506200030b565b5090565b5b808211156200030757600081556001016200030c565b80516001600160a01b03811681146200033a57600080fd5b919050565b60008060008060008060c0878903121562000358578182fd5b86516001600160401b03808211156200036f578384fd5b818901915089601f83011262000383578384fd5b8151818111156200039857620003986200049e565b604051601f8201601f19908116603f01168101908382118183101715620003c357620003c36200049e565b81604052828152602093508c84848701011115620003df578687fd5b8691505b82821015620004025784820184015181830185015290830190620003e3565b828211156200041357868484830101525b99506200042591505089820162000322565b965050506040870151935060608701519250620004456080880162000322565b91506200045560a0880162000322565b90509295509295509295565b600181811c908216806200047657607f821691505b602082108114156200049857634e487b7160e01b600052602260045260246000fd5b50919050565b634e487b7160e01b600052604160045260246000fd5b60805160601c6148656200051260003960008181610a0001528181610c4201528181610f13015281816111d9015281816112f0015281816115f401528181611cc80152818161235b01528181612b79015261336f01526148656000f3fe6080604052600436106103cd5760003560e01c8063715018a6116101fd578063b473171611610118578063dd688323116100ab578063eb8d72b71161007a578063eb8d72b714610bb7578063f2fde38b14610bd7578063f36bc30d14610bf7578063f5ecbdbc14610c0a578063fb0bc9d714610c2a57600080fd5b8063dd68832314610b25578063e1d4c87014610b38578063e985e9c514610b4e578063ea9d6d2914610b9757600080fd5b8063c87b56dd116100e7578063c87b56dd14610ab2578063cbed8b9c14610ad2578063d1deba1f14610af2578063d5aaffe314610b0557600080fd5b8063b473171614610a22578063b88d4fde14610a42578063bd89cc7114610a62578063c32e00fe14610a9257600080fd5b8063a22cb46511610190578063a966fa331161015f578063a966fa3314610984578063ac4976a1146109b4578063b187bd26146109d4578063b353aaa7146109ee57600080fd5b8063a22cb46514610918578063a80d71bb14610938578063a8602fea1461094e578063a945bf801461096e57600080fd5b806387b8ff27116101cc57806387b8ff27146108a55780638da5cb5b146108c55780639511e65c146108e357806395d89b411461090357600080fd5b8063715018a61461082d5780637533d7881461084257806378624f09146108625780637e10ab0d1461087857600080fd5b806342842e0e116102ed57806357a736091161028057806366ad5c8a1161024f57806366ad5c8a146107b75780636aa99da3146107d75780636c8b703f146107ed57806370a082311461080d57600080fd5b806357a73609146107055780635b8c41e6146107325780636352211e1461078157806363b468ce146107a157600080fd5b806349afc6e5116102bc57806349afc6e51461069957806351463d5b146106c657806351905636146106dc57806351d982b4146106ef57600080fd5b806342842e0e1461061957806342d65a8d14610639578063450a3292146106595780634626402b1461067957600080fd5b80630f78a4d51161036557806323b872dd1161033457806323b872dd146105835780632a205e3d146105a35780632db11544146105d85780633d8b38f6146105f957600080fd5b80630f78a4d51461050357806310ddb1371461052357806316c38b3c14610543578063197e6cf01461056357600080fd5b806307e0db17116103a157806307e0db171461046b578063081812fc1461048b578063095ea7b3146104c35780630f5a9d01146104e357600080fd5b80621d3567146103d257806301ffc9a7146103f45780630442bfa81461042957806306fdde0314610449575b600080fd5b3480156103de57600080fd5b506103f26103ed366004613ef2565b610c3f565b005b34801561040057600080fd5b5061041461040f366004613cba565b610de6565b60405190151581526020015b60405180910390f35b34801561043557600080fd5b506103f2610444366004614023565b610e09565b34801561045557600080fd5b5061045e610e3e565b60405161042091906142b4565b34801561047757600080fd5b506103f2610486366004613d9a565b610ed0565b34801561049757600080fd5b506104ab6104a6366004613ca2565b610f74565b6040516001600160a01b039091168152602001610420565b3480156104cf57600080fd5b506103f26104de366004613bd0565b610ffc565b3480156104ef57600080fd5b506103f26104fe3660046139f0565b611112565b34801561050f57600080fd5b506103f261051e366004613aed565b61115e565b34801561052f57600080fd5b506103f261053e366004613d9a565b611196565b34801561054f57600080fd5b506103f261055e366004613c6a565b611210565b34801561056f57600080fd5b506103f261057e366004613ca2565b611250565b34801561058f57600080fd5b506103f261059e366004613a44565b61127f565b3480156105af57600080fd5b506105c36105be366004613e04565b6112b1565b60408051928352602083019190915201610420565b6105eb6105e6366004613ca2565b61138b565b604051908152602001610420565b34801561060557600080fd5b50610414610614366004613db4565b6114cc565b34801561062557600080fd5b506103f2610634366004613a44565b611598565b34801561064557600080fd5b506103f2610654366004613db4565b6115b3565b34801561066557600080fd5b506103f2610674366004614067565b611664565b34801561068557600080fd5b50601c546104ab906001600160a01b031681565b3480156106a557600080fd5b506105eb6106b4366004613ca2565b60166020526000908152604090205481565b3480156106d257600080fd5b506105eb60105481565b6103f26106ea366004613b1a565b6116bb565b3480156106fb57600080fd5b506105eb600e5481565b34801561071157600080fd5b506105eb610720366004613ca2565b60176020526000908152604090205481565b34801561073e57600080fd5b506105eb61074d366004613e93565b6002602090815260009384526040808520845180860184018051928152908401958401959095209452929052825290205481565b34801561078d57600080fd5b506104ab61079c366004613ca2565b6116ca565b3480156107ad57600080fd5b506105eb60195481565b3480156107c357600080fd5b506103f26107d2366004613ef2565b611741565b3480156107e357600080fd5b506105eb600b5481565b3480156107f957600080fd5b5061045e610808366004613ca2565b6117b1565b34801561081957600080fd5b506105eb6108283660046139f0565b61184b565b34801561083957600080fd5b506103f26118d2565b34801561084e57600080fd5b5061045e61085d366004613d9a565b611908565b34801561086e57600080fd5b506105eb601a5481565b34801561088457600080fd5b506105eb6108933660046139f0565b60136020526000908152604090205481565b3480156108b157600080fd5b506103f26108c0366004613aed565b611921565b3480156108d157600080fd5b506000546001600160a01b03166104ab565b3480156108ef57600080fd5b506103f26108fe366004613bd0565b611955565b34801561090f57600080fd5b5061045e61199c565b34801561092457600080fd5b506103f2610933366004613aed565b6119ab565b34801561094457600080fd5b506105eb600f5481565b34801561095a57600080fd5b506103f26109693660046139f0565b6119b6565b34801561097a57600080fd5b506105eb600d5481565b34801561099057600080fd5b5061041461099f3660046139f0565b60156020526000908152604090205460ff1681565b3480156109c057600080fd5b506104146109cf366004613bfb565b611a02565b3480156109e057600080fd5b506012546104149060ff1681565b3480156109fa57600080fd5b506104ab7f000000000000000000000000000000000000000000000000000000000000000081565b348015610a2e57600080fd5b506103f2610a3d366004613d68565b611a72565b348015610a4e57600080fd5b506103f2610a5d366004613a84565b611aaf565b348015610a6e57600080fd5b50610414610a7d3660046139f0565b60146020526000908152604090205460ff1681565b348015610a9e57600080fd5b506103f2610aad366004613ca2565b611ae1565b348015610abe57600080fd5b5061045e610acd366004613ca2565b611b10565b348015610ade57600080fd5b506103f2610aed366004613fb7565b611c87565b6103f2610b00366004613ef2565b611d3e565b348015610b1157600080fd5b50610414610b20366004613bfb565b611e90565b6105eb610b33366004613bfb565b611ede565b348015610b4457600080fd5b506105eb600c5481565b348015610b5a57600080fd5b50610414610b69366004613a0c565b6001600160a01b03918216600090815260086020908152604080832093909416825291909152205460ff1690565b348015610ba357600080fd5b506103f2610bb2366004613ca2565b612067565b348015610bc357600080fd5b506103f2610bd2366004613db4565b612096565b348015610be357600080fd5b506103f2610bf23660046139f0565b61211f565b6105eb610c05366004613bfb565b6121b7565b348015610c1657600080fd5b5061045e610c25366004613f6b565b61232a565b348015610c3657600080fd5b5061045e6123e1565b337f00000000000000000000000000000000000000000000000000000000000000006001600160a01b031614610cbc5760405162461bcd60e51b815260206004820152601e60248201527f4c7a4170703a20696e76616c696420656e64706f696e742063616c6c6572000060448201526064015b60405180910390fd5b61ffff841660009081526001602052604081208054610cda90614735565b80601f0160208091040260200160405190810160405280929190818152602001828054610d0690614735565b8015610d535780601f10610d2857610100808354040283529160200191610d53565b820191906000526020600020905b815481529060010190602001808311610d3657829003601f168201915b5050505050905080518451148015610d78575080805190602001208480519060200120145b610dd35760405162461bcd60e51b815260206004820152602660248201527f4c7a4170703a20696e76616c696420736f757263652073656e64696e6720636f6044820152651b9d1c9858dd60d21b6064820152608401610cb3565b610ddf858585856123ee565b5050505050565b60006001600160e01b031982161580610e035750610e03826124df565b92915050565b6000546001600160a01b03163314610e335760405162461bcd60e51b8152600401610cb39061438c565b600d91909155600e55565b606060038054610e4d90614735565b80601f0160208091040260200160405190810160405280929190818152602001828054610e7990614735565b8015610ec65780601f10610e9b57610100808354040283529160200191610ec6565b820191906000526020600020905b815481529060010190602001808311610ea957829003601f168201915b5050505050905090565b6000546001600160a01b03163314610efa5760405162461bcd60e51b8152600401610cb39061438c565b6040516307e0db1760e01b815261ffff821660048201527f00000000000000000000000000000000000000000000000000000000000000006001600160a01b0316906307e0db17906024015b600060405180830381600087803b158015610f6057600080fd5b505af1158015610ddf573d6000803e3d6000fd5b6000610f7f8261251f565b610fe05760405162461bcd60e51b815260206004820152602c60248201527f4552433732313a20617070726f76656420717565727920666f72206e6f6e657860448201526b34b9ba32b73a103a37b5b2b760a11b6064820152608401610cb3565b506000908152600760205260409020546001600160a01b031690565b6000611007826116ca565b9050806001600160a01b0316836001600160a01b031614156110755760405162461bcd60e51b815260206004820152602160248201527f4552433732313a20617070726f76616c20746f2063757272656e74206f776e656044820152603960f91b6064820152608401610cb3565b336001600160a01b038216148061109157506110918133610b69565b6111035760405162461bcd60e51b815260206004820152603860248201527f4552433732313a20617070726f76652063616c6c6572206973206e6f74206f7760448201527f6e6572206e6f7220617070726f76656420666f7220616c6c00000000000000006064820152608401610cb3565b61110d838361253c565b505050565b6000546001600160a01b0316331461113c5760405162461bcd60e51b8152600401610cb39061438c565b601b80546001600160a01b0319166001600160a01b0392909216919091179055565b6000546001600160a01b031633146111885760405162461bcd60e51b8152600401610cb39061438c565b61119282826125aa565b5050565b6000546001600160a01b031633146111c05760405162461bcd60e51b8152600401610cb39061438c565b6040516310ddb13760e01b815261ffff821660048201527f00000000000000000000000000000000000000000000000000000000000000006001600160a01b0316906310ddb13790602401610f46565b6000546001600160a01b0316331461123a5760405162461bcd60e51b8152600401610cb39061438c565b6012805482151560ff1990911617905550565b50565b6000546001600160a01b0316331461127a5760405162461bcd60e51b8152600401610cb39061438c565b601955565b61128a335b826125d5565b6112a65760405162461bcd60e51b8152600401610cb3906143c1565b61110d8383836126be565b600080600086866040516020016112c99291906142c7565b60408051601f198184030181529082905263040a7bb160e41b825291506001600160a01b037f000000000000000000000000000000000000000000000000000000000000000016906340a7bb109061132d908b90309086908b908b90600401614412565b604080518083038186803b15801561134457600080fd5b505afa158015611358573d6000803e3d6000fd5b505050506040513d601f19601f8201168201806040525081019061137c9190614044565b92509250509550959350505050565b60006010544210156113f85760405162461bcd60e51b815260206004820152603060248201527f556e6976657273616c4f4e46543732313a205075626c6963206d696e7420697360448201526f206e6f74206f70656e6564207965742160801b6064820152608401610cb3565b336000908152601360205260409020546003906114169084906145b9565b11156114705760405162461bcd60e51b8152602060048201526024808201527f556e6976657273616c4f4e46543732313a204d696e7420636f756e74206c696d6044820152631a5d195960e21b6064820152608401610cb3565b61147c82600d5461285a565b336000818152601360205260409020546114b8919061149c9085906145b9565b6001600160a01b03909116600090815260136020526040902055565b6001600b54610e0391906146f2565b919050565b61ffff8316600090815260016020526040812080548291906114ed90614735565b80601f016020809104026020016040519081016040528092919081815260200182805461151990614735565b80156115665780601f1061153b57610100808354040283529160200191611566565b820191906000526020600020905b81548152906001019060200180831161154957829003601f168201915b50505050509050838360405161157d92919061417f565b60405180910390208180519060200120149150509392505050565b61110d83838360405180602001604052806000815250611aaf565b6000546001600160a01b031633146115dd5760405162461bcd60e51b8152600401610cb39061438c565b6040516342d65a8d60e01b81526001600160a01b037f000000000000000000000000000000000000000000000000000000000000000016906342d65a8d9061162d90869086908690600401614466565b600060405180830381600087803b15801561164757600080fd5b505af115801561165b573d6000803e3d6000fd5b50505050505050565b6000546001600160a01b0316331461168e5760405162461bcd60e51b8152600401610cb39061438c565b600b839055600c82905580516116ab9060119060208401906137c1565b506012805460ff19169055505050565b61165b87878787878787612b18565b6000818152600560205260408120546001600160a01b031680610e035760405162461bcd60e51b815260206004820152602960248201527f4552433732313a206f776e657220717565727920666f72206e6f6e657869737460448201526832b73a103a37b5b2b760b91b6064820152608401610cb3565b33301461179f5760405162461bcd60e51b815260206004820152602660248201527f4e6f6e626c6f636b696e674c7a4170703a2063616c6c6572206d7573742062656044820152650204c7a4170760d41b6064820152608401610cb3565b6117ab84848484612c6f565b50505050565b601860205260009081526040902080546117ca90614735565b80601f01602080910402602001604051908101604052809291908181526020018280546117f690614735565b80156118435780601f1061181857610100808354040283529160200191611843565b820191906000526020600020905b81548152906001019060200180831161182657829003601f168201915b505050505081565b60006001600160a01b0382166118b65760405162461bcd60e51b815260206004820152602a60248201527f4552433732313a2062616c616e636520717565727920666f7220746865207a65604482015269726f206164647265737360b01b6064820152608401610cb3565b506001600160a01b031660009081526006602052604090205490565b6000546001600160a01b031633146118fc5760405162461bcd60e51b8152600401610cb39061438c565b6119066000612d0a565b565b600160205260009081526040902080546117ca90614735565b6000546001600160a01b0316331461194b5760405162461bcd60e51b8152600401610cb39061438c565b6111928282612d5a565b6000546001600160a01b0316331461197f5760405162461bcd60e51b8152600401610cb39061438c565b6001600160a01b0391909116600090815260136020526040902055565b606060048054610e4d90614735565b611192338383612d85565b6000546001600160a01b031633146119e05760405162461bcd60e51b8152600401610cb39061438c565b601c80546001600160a01b0319166001600160a01b0392909216919091179055565b6000611a6b83838080602002602001604051908101604052809392919081815260200183836020028082843760009201919091525050601a54604051909250611a5091503390602001614162565b60405160208183030381529060405280519060200120612e54565b9392505050565b6000546001600160a01b03163314611a9c5760405162461bcd60e51b8152600401610cb39061438c565b80516111929060119060208401906137c1565b611ab933836125d5565b611ad55760405162461bcd60e51b8152600401610cb3906143c1565b6117ab84848484612e6a565b6000546001600160a01b03163314611b0b5760405162461bcd60e51b8152600401610cb39061438c565b601a55565b6060611b1b8261251f565b611b815760405162461bcd60e51b815260206004820152603160248201527f45524337323155524953746f726167653a2055524920717565727920666f72206044820152703737b732bc34b9ba32b73a103a37b5b2b760791b6064820152608401610cb3565b60008281526009602052604081208054611b9a90614735565b80601f0160208091040260200160405190810160405280929190818152602001828054611bc690614735565b8015611c135780601f10611be857610100808354040283529160200191611c13565b820191906000526020600020905b815481529060010190602001808311611bf657829003601f168201915b505050505090506000611c3160408051602081019091526000815290565b9050805160001415611c44575092915050565b815115611c76578082604051602001611c5e9291906141ab565b60405160208183030381529060405292505050919050565b611c7f84612e9d565b949350505050565b6000546001600160a01b03163314611cb15760405162461bcd60e51b8152600401610cb39061438c565b6040516332fb62e760e21b81526001600160a01b037f0000000000000000000000000000000000000000000000000000000000000000169063cbed8b9c90611d059088908890889088908890600401614534565b600060405180830381600087803b158015611d1f57600080fd5b505af1158015611d33573d6000803e3d6000fd5b505050505050505050565b61ffff84166000908152600260205260408082209051611d5f90869061418f565b90815260408051602092819003830190206001600160401b03861660009081529252902054905080611ddf5760405162461bcd60e51b815260206004820152602360248201527f4e6f6e626c6f636b696e674c7a4170703a206e6f2073746f726564206d65737360448201526261676560e81b6064820152608401610cb3565b815160208301208114611e3e5760405162461bcd60e51b815260206004820152602160248201527f4e6f6e626c6f636b696e674c7a4170703a20696e76616c6964207061796c6f616044820152601960fa1b6064820152608401610cb3565b61ffff85166000908152600260205260408082209051611e5f90879061418f565b90815260408051602092819003830190206001600160401b03871660009081529252902055610ddf85858585612c6f565b6000611a6b83838080602002602001604051908101604052809392919081815260200183836020028082843760009201919091525050601954604051909250611a5091503390602001614162565b600062015180601054611ef191906146f2565b421015611f105760405162461bcd60e51b8152600401610cb39061433b565b8282611f5e82828080602002602001604051908101604052809392919081815260200183836020028082843760009201919091525050601a54604051909250611a5091503390602001614162565b611fc35760405162461bcd60e51b815260206004820152603060248201527f556e6976657273616c4f4e46543732313a2041646472657373206973204e4f5460448201526f20467265656c6973746564207965742160801b6064820152608401610cb3565b3360009081526015602052604090205460ff16156120385760405162461bcd60e51b815260206004820152602c60248201527f556e6976657273616c4f4e46543732313a20467265656e6c69737420616c726560448201526b61647920636c61696d65642160a01b6064820152608401610cb3565b6120446001600061285a565b61204f336001612d5a565b6001600b5461205e91906146f2565b95945050505050565b6000546001600160a01b031633146120915760405162461bcd60e51b8152600401610cb39061438c565b601055565b6000546001600160a01b031633146120c05760405162461bcd60e51b8152600401610cb39061438c565b61ffff831660009081526001602052604090206120de908383613845565b507ffa41487ad5d6728f0b19276fa1eddc16558578f5109fc39d2dc33c3230470dab83838360405161211293929190614466565b60405180910390a1505050565b6000546001600160a01b031633146121495760405162461bcd60e51b8152600401610cb39061438c565b6001600160a01b0381166121ae5760405162461bcd60e51b815260206004820152602660248201527f4f776e61626c653a206e6577206f776e657220697320746865207a65726f206160448201526564647265737360d01b6064820152608401610cb3565b61124d81612d0a565b6000620151806010546121ca91906146f2565b4210156121e95760405162461bcd60e51b8152600401610cb39061433b565b828261223782828080602002602001604051908101604052809392919081815260200183836020028082843760009201919091525050601954604051909250611a5091503390602001614162565b61229d5760405162461bcd60e51b815260206004820152603160248201527f556e6976657273616c4f4e46543732313a2041646472657373206973204e4f5460448201527020477265656e6c6973746564207965742160781b6064820152608401610cb3565b3360009081526014602052604090205460ff16156123125760405162461bcd60e51b815260206004820152602c60248201527f556e6976657273616c4f4e46543732313a20477265656e6c69737420616c726560448201526b61647920636c61696d65642160a01b6064820152608401610cb3565b61231f6001600e5461285a565b61204f3360016125aa565b604051633d7b2f6f60e21b815261ffff808616600483015284166024820152306044820152606481018290526060907f00000000000000000000000000000000000000000000000000000000000000006001600160a01b03169063f5ecbdbc9060840160006040518083038186803b1580156123a557600080fd5b505afa1580156123b9573d6000803e3d6000fd5b505050506040513d6000823e601f3d908101601f1916820160405261205e9190810190613cf2565b601180546117ca90614735565b604051633356ae4560e11b815230906366ad5c8a906124179087908790879087906004016144eb565b600060405180830381600087803b15801561243157600080fd5b505af1925050508015612442575060015b6117ab578080519060200120600260008661ffff1661ffff16815260200190815260200160002084604051612477919061418f565b9081526040805191829003602090810183206001600160401b0387166000908152915220919091557fe6f254030bcb01ffd20558175c13fcaed6d1520be7becee4c961b65f79243b0d906124d29086908690869086906144eb565b60405180910390a16117ab565b60006001600160e01b031982166380ac58cd60e01b148061251057506001600160e01b03198216635b5e139f60e01b145b80610e035750610e0382612f74565b6000908152600560205260409020546001600160a01b0316151590565b600081815260076020526040902080546001600160a01b0319166001600160a01b0384169081179091558190612571826116ca565b6001600160a01b03167f8c5be1e5ebec7d5bd14f71427d1e84f3dd0314c0f7b2291e5b200ac8c7c3b92560405160405180910390a45050565b6001600160a01b03919091166000908152601460205260409020805460ff1916911515919091179055565b60006125e08261251f565b6126415760405162461bcd60e51b815260206004820152602c60248201527f4552433732313a206f70657261746f7220717565727920666f72206e6f6e657860448201526b34b9ba32b73a103a37b5b2b760a11b6064820152608401610cb3565b600061264c836116ca565b9050806001600160a01b0316846001600160a01b0316148061269357506001600160a01b0380821660009081526008602090815260408083209388168352929052205460ff165b80611c7f5750836001600160a01b03166126ac84610f74565b6001600160a01b031614949350505050565b826001600160a01b03166126d1826116ca565b6001600160a01b0316146127355760405162461bcd60e51b815260206004820152602560248201527f4552433732313a207472616e736665722066726f6d20696e636f72726563742060448201526437bbb732b960d91b6064820152608401610cb3565b6001600160a01b0382166127975760405162461bcd60e51b8152602060048201526024808201527f4552433732313a207472616e7366657220746f20746865207a65726f206164646044820152637265737360e01b6064820152608401610cb3565b6127a260008261253c565b6001600160a01b03831660009081526006602052604081208054600192906127cb9084906146f2565b90915550506001600160a01b03821660009081526006602052604081208054600192906127f99084906145b9565b909155505060008181526005602052604080822080546001600160a01b0319166001600160a01b0386811691821790925591518493918716917fddf252ad1be2c89b69c2b068fc378daa952ba7f163c4a11628f55a4df523b3ef91a4505050565b600c54600183600b5461286d91906145b9565b61287791906146f2565b11156128d65760405162461bcd60e51b815260206004820152602860248201527f556e6976657273616c4f4e46543732313a206d6178206d696e74206c696d6974604482015267081c995858da195960c21b6064820152608401610cb3565b60125460ff16156129295760405162461bcd60e51b815260206004820181905260248201527f556e6976657273616c4f4e46543732313a204d696e74206973205061757365646044820152606401610cb3565b8015612a6357601b54601c546040805163313ce56760e01b815290516001600160a01b03938416936323b872dd933393911691859163313ce567916004808301926020929190829003018186803b15801561298357600080fd5b505afa158015612997573d6000803e3d6000fd5b505050506040513d601f19601f820116820180604052508101906129bb91906140d0565b6129c690600a614628565b6129d086886146d3565b6129da91906146d3565b6040516001600160e01b031960e086901b1681526001600160a01b0393841660048201529290911660248301526044820152606401602060405180830381600087803b158015612a2957600080fd5b505af1158015612a3d573d6000803e3d6000fd5b505050506040513d601f19601f82011682018060405250810190612a619190613c86565b505b60005b82811015612aef57600f54600b805460009081526016602052604090209190915554612a923382612fa9565b612ac6816011612aa184612fc3565b604051602001612ab29291906141da565b6040516020818303038152906040526130dc565b600b8054906000612ad683614770565b9190505550508080612ae790614770565b915050612a66565b50600c54612afe9060016145b9565b600b541415611192576012805460ff191660011790555050565b612b2487878787613167565b60008585604051602001612b399291906142c7565b6040516020818303038152906040529050612b578782868686613250565b604051630f428ae960e31b815261ffff881660048201523060248201526000907f00000000000000000000000000000000000000000000000000000000000000006001600160a01b031690637a1457489060440160206040518083038186803b158015612bc357600080fd5b505afa158015612bd7573d6000803e3d6000fd5b505050506040513d601f19601f82011682018060405250810190612bfb91906140b4565b905086604051612c0b919061418f565b604080519182900382208883526001600160401b03841660208401529161ffff8b16916001600160a01b038d16917f024797cc77ce15dc717112d54fb1df125fdfd8c81344fb046c5e074427ce1543910160405180910390a4505050505050505050565b60008082806020019051810190612c869190613d24565b60148201519193509150612c9b8782846133ea565b806001600160a01b031686604051612cb3919061418f565b604080519182900382208583526001600160401b03891660208401529161ffff8b16917f64e10c37f404d128982dce114f5d233c14c5c7f6d8db93099e3d99dacb9e27ba910160405180910390a450505050505050565b600080546001600160a01b038381166001600160a01b0319831681178455604051919092169283917f8be0079c531659141344cd1fd0a4f28419497f9722a3daafe3b4186f6b6457e09190a35050565b6001600160a01b03919091166000908152601560205260409020805460ff1916911515919091179055565b816001600160a01b0316836001600160a01b03161415612de75760405162461bcd60e51b815260206004820152601960248201527f4552433732313a20617070726f766520746f2063616c6c6572000000000000006044820152606401610cb3565b6001600160a01b03838116600081815260086020908152604080832094871680845294825291829020805460ff191686151590811790915591519182527f17307eab39ab6107e8899845ad3d59bd9653f200f220920489ca2b5937696c31910160405180910390a3505050565b600082612e6185846133f4565b14949350505050565b612e758484846126be565b612e8184848484613476565b6117ab5760405162461bcd60e51b8152600401610cb3906142e9565b6060612ea88261251f565b612f0c5760405162461bcd60e51b815260206004820152602f60248201527f4552433732314d657461646174613a2055524920717565727920666f72206e6f60448201526e3732bc34b9ba32b73a103a37b5b2b760891b6064820152608401610cb3565b6000612f2360408051602081019091526000815290565b90506000815111612f435760405180602001604052806000815250611a6b565b80612f4d84612fc3565b604051602001612f5e9291906141ab565b6040516020818303038152906040529392505050565b60006001600160e01b03198216637bb0080b60e01b1480610e0357506301ffc9a760e01b6001600160e01b0319831614610e03565b611192828260405180602001604052806000815250613580565b606081612fe75750506040805180820190915260018152600360fc1b602082015290565b8160005b81156130115780612ffb81614770565b915061300a9050600a836145d1565b9150612feb565b6000816001600160401b0381111561303957634e487b7160e01b600052604160045260246000fd5b6040519080825280601f01601f191660200182016040528015613063576020820181803683370190505b5090505b8415611c7f576130786001836146f2565b9150613085600a8661478b565b6130909060306145b9565b60f81b8183815181106130b357634e487b7160e01b600052603260045260246000fd5b60200101906001600160f81b031916908160001a9053506130d5600a866145d1565b9450613067565b6130e58261251f565b6131485760405162461bcd60e51b815260206004820152602e60248201527f45524337323155524953746f726167653a2055524920736574206f66206e6f6e60448201526d32bc34b9ba32b73a103a37b5b2b760911b6064820152608401610cb3565b6000828152600960209081526040909120825161110d928401906137c1565b61317033611284565b6131d35760405162461bcd60e51b815260206004820152602e60248201527f4f4e46543732313a2073656e642063616c6c6572206973206e6f74206f776e6560448201526d1c881b9bdc88185c1c1c9bdd995960921b6064820152608401610cb3565b836001600160a01b03166131e6826116ca565b6001600160a01b0316146132475760405162461bcd60e51b815260206004820152602260248201527f4f4e46543732313a2073656e642066726f6d20696e636f7272656374206f776e60448201526132b960f11b6064820152608401610cb3565b6117ab816135b3565b61ffff85166000908152600160205260408120805461326e90614735565b80601f016020809104026020016040519081016040528092919081815260200182805461329a90614735565b80156132e75780601f106132bc576101008083540402835291602001916132e7565b820191906000526020600020905b8154815290600101906020018083116132ca57829003601f168201915b505050505090508051600014156133595760405162461bcd60e51b815260206004820152603060248201527f4c7a4170703a2064657374696e6174696f6e20636861696e206973206e6f742060448201526f61207472757374656420736f7572636560801b6064820152608401610cb3565b60405162c5803160e81b81526001600160a01b037f0000000000000000000000000000000000000000000000000000000000000000169063c58031009034906133b0908a9086908b908b908b908b90600401614484565b6000604051808303818588803b1580156133c957600080fd5b505af11580156133dd573d6000803e3d6000fd5b5050505050505050505050565b61110d8282612fa9565b600081815b845181101561346e57600085828151811061342457634e487b7160e01b600052603260045260246000fd5b6020026020010151905080831161344a576000838152602082905260409020925061345b565b600081815260208490526040902092505b508061346681614770565b9150506133f9565b509392505050565b60006001600160a01b0384163b1561357857604051630a85bd0160e11b81526001600160a01b0385169063150b7a02906134ba903390899088908890600401614277565b602060405180830381600087803b1580156134d457600080fd5b505af1925050508015613504575060408051601f3d908101601f1916820190925261350191810190613cd6565b60015b61355e573d808015613532576040519150601f19603f3d011682016040523d82523d6000602084013e613537565b606091505b5080516135565760405162461bcd60e51b8152600401610cb3906142e9565b805181602001fd5b6001600160e01b031916630a85bd0160e11b149050611c7f565b506001611c7f565b61358a83836135f3565b6135976000848484613476565b61110d5760405162461bcd60e51b8152600401610cb3906142e9565b6135bc81613726565b600081815260096020526040902080546135d590614735565b15905061124d57600081815260096020526040812061124d916138b9565b6001600160a01b0382166136495760405162461bcd60e51b815260206004820181905260248201527f4552433732313a206d696e7420746f20746865207a65726f20616464726573736044820152606401610cb3565b6136528161251f565b1561369f5760405162461bcd60e51b815260206004820152601c60248201527f4552433732313a20746f6b656e20616c7265616479206d696e746564000000006044820152606401610cb3565b6001600160a01b03821660009081526006602052604081208054600192906136c89084906145b9565b909155505060008181526005602052604080822080546001600160a01b0319166001600160a01b03861690811790915590518392907fddf252ad1be2c89b69c2b068fc378daa952ba7f163c4a11628f55a4df523b3ef908290a45050565b6000613731826116ca565b905061373e60008361253c565b6001600160a01b03811660009081526006602052604081208054600192906137679084906146f2565b909155505060008281526005602052604080822080546001600160a01b0319169055518391906001600160a01b038416907fddf252ad1be2c89b69c2b068fc378daa952ba7f163c4a11628f55a4df523b3ef908390a45050565b8280546137cd90614735565b90600052602060002090601f0160209004810192826137ef5760008555613835565b82601f1061380857805160ff1916838001178555613835565b82800160010185558215613835579182015b8281111561383557825182559160200191906001019061381a565b506138419291506138ef565b5090565b82805461385190614735565b90600052602060002090601f0160209004810192826138735760008555613835565b82601f1061388c5782800160ff19823516178555613835565b82800160010185558215613835579182015b8281111561383557823582559160200191906001019061389e565b5080546138c590614735565b6000825580601f106138d5575050565b601f01602090049060005260206000209081019061124d91905b5b8082111561384157600081556001016138f0565b60008083601f840112613915578182fd5b5081356001600160401b0381111561392b578182fd5b60208301915083602082850101111561394357600080fd5b9250929050565b600082601f83011261395a578081fd5b813561396d61396882614592565b614562565b818152846020838601011115613981578283fd5b816020850160208301379081016020019190915292915050565b600082601f8301126139ab578081fd5b81516139b961396882614592565b8181528460208386010111156139cd578283fd5b611c7f826020830160208701614709565b803561ffff811681146114c757600080fd5b600060208284031215613a01578081fd5b8135611a6b816147e1565b60008060408385031215613a1e578081fd5b8235613a29816147e1565b91506020830135613a39816147e1565b809150509250929050565b600080600060608486031215613a58578081fd5b8335613a63816147e1565b92506020840135613a73816147e1565b929592945050506040919091013590565b60008060008060808587031215613a99578081fd5b8435613aa4816147e1565b93506020850135613ab4816147e1565b92506040850135915060608501356001600160401b03811115613ad5578182fd5b613ae18782880161394a565b91505092959194509250565b60008060408385031215613aff578182fd5b8235613b0a816147e1565b91506020830135613a39816147f6565b600080600080600080600060e0888a031215613b34578283fd5b8735613b3f816147e1565b9650613b4d602089016139de565b955060408801356001600160401b0380821115613b68578485fd5b613b748b838c0161394a565b965060608a0135955060808a01359150613b8d826147e1565b90935060a089013590613b9f826147e1565b90925060c08901359080821115613bb4578283fd5b50613bc18a828b0161394a565b91505092959891949750929550565b60008060408385031215613be2578182fd5b8235613bed816147e1565b946020939093013593505050565b60008060208385031215613c0d578182fd5b82356001600160401b0380821115613c23578384fd5b818501915085601f830112613c36578384fd5b813581811115613c44578485fd5b8660208260051b8501011115613c58578485fd5b60209290920196919550909350505050565b600060208284031215613c7b578081fd5b8135611a6b816147f6565b600060208284031215613c97578081fd5b8151611a6b816147f6565b600060208284031215613cb3578081fd5b5035919050565b600060208284031215613ccb578081fd5b8135611a6b81614804565b600060208284031215613ce7578081fd5b8151611a6b81614804565b600060208284031215613d03578081fd5b81516001600160401b03811115613d18578182fd5b611c7f8482850161399b565b60008060408385031215613d36578182fd5b82516001600160401b03811115613d4b578283fd5b613d578582860161399b565b925050602083015190509250929050565b600060208284031215613d79578081fd5b81356001600160401b03811115613d8e578182fd5b611c7f8482850161394a565b600060208284031215613dab578081fd5b611a6b826139de565b600080600060408486031215613dc8578081fd5b613dd1846139de565b925060208401356001600160401b03811115613deb578182fd5b613df786828701613904565b9497909650939450505050565b600080600080600060a08688031215613e1b578283fd5b613e24866139de565b945060208601356001600160401b0380821115613e3f578485fd5b613e4b89838a0161394a565b95506040880135945060608801359150613e64826147f6565b90925060808701359080821115613e79578283fd5b50613e868882890161394a565b9150509295509295909350565b600080600060608486031215613ea7578081fd5b613eb0846139de565b925060208401356001600160401b03811115613eca578182fd5b613ed68682870161394a565b9250506040840135613ee78161481a565b809150509250925092565b60008060008060808587031215613f07578182fd5b613f10856139de565b935060208501356001600160401b0380821115613f2b578384fd5b613f378883890161394a565b945060408701359150613f498261481a565b90925060608601359080821115613f5e578283fd5b50613ae18782880161394a565b60008060008060808587031215613f80578182fd5b613f89856139de565b9350613f97602086016139de565b92506040850135613fa7816147e1565b9396929550929360600135925050565b600080600080600060808688031215613fce578283fd5b613fd7866139de565b9450613fe5602087016139de565b93506040860135925060608601356001600160401b03811115614006578182fd5b61401288828901613904565b969995985093965092949392505050565b60008060408385031215614035578182fd5b50508035926020909101359150565b60008060408385031215614056578182fd5b505080516020909101519092909150565b60008060006060848603121561407b578081fd5b833592506020840135915060408401356001600160401b0381111561409e578182fd5b6140aa8682870161394a565b9150509250925092565b6000602082840312156140c5578081fd5b8151611a6b8161481a565b6000602082840312156140e1578081fd5b815160ff81168114611a6b578182fd5b81835281816020850137506000828201602090810191909152601f909101601f19169091010190565b60008151808452614132816020860160208601614709565b601f01601f19169290920160200192915050565b60008151614158818560208601614709565b9290920192915050565b60609190911b6bffffffffffffffffffffffff1916815260140190565b8183823760009101908152919050565b600082516141a1818460208701614709565b9190910192915050565b600083516141bd818460208801614709565b8351908301906141d1818360208801614709565b01949350505050565b600080845482600182811c9150808316806141f657607f831692505b602080841082141561421657634e487b7160e01b87526022600452602487fd5b81801561422a576001811461423b57614267565b60ff19861689528489019650614267565b60008b815260209020885b8681101561425f5781548b820152908501908301614246565b505084890196505b50505050505061205e8185614146565b6001600160a01b03858116825284166020820152604081018390526080606082018190526000906142aa9083018461411a565b9695505050505050565b602081526000611a6b602083018461411a565b6040815260006142da604083018561411a565b90508260208301529392505050565b60208082526032908201527f4552433732313a207472616e7366657220746f206e6f6e20455243373231526560408201527131b2b4bb32b91034b6b83632b6b2b73a32b960711b606082015260800190565b60208082526031908201527f556e6976657273616c4f4e46543732313a205370656369616c206d696e74206960408201527073206e6f74206f70656e6564207965742160781b606082015260800190565b6020808252818101527f4f776e61626c653a2063616c6c6572206973206e6f7420746865206f776e6572604082015260600190565b60208082526031908201527f4552433732313a207472616e736665722063616c6c6572206973206e6f74206f6040820152701ddb995c881b9bdc88185c1c1c9bdd9959607a1b606082015260800190565b61ffff861681526001600160a01b038516602082015260a0604082018190526000906144409083018661411a565b8415156060840152828103608084015261445a818561411a565b98975050505050505050565b61ffff8416815260406020820152600061205e6040830184866140f1565b61ffff8716815260c0602082015260006144a160c083018861411a565b82810360408401526144b3818861411a565b6001600160a01b0387811660608601528616608085015283810360a085015290506144de818561411a565b9998505050505050505050565b61ffff85168152608060208201526000614508608083018661411a565b6001600160401b03851660408401528281036060840152614529818561411a565b979650505050505050565b600061ffff8088168352808716602084015250846040830152608060608301526145296080830184866140f1565b604051601f8201601f191681016001600160401b038111828210171561458a5761458a6147cb565b604052919050565b60006001600160401b038211156145ab576145ab6147cb565b50601f01601f191660200190565b600082198211156145cc576145cc61479f565b500190565b6000826145e0576145e06147b5565b500490565b600181815b808511156146205781600019048211156146065761460661479f565b8085161561461357918102915b93841c93908002906145ea565b509250929050565b6000611a6b60ff84168360008261464157506001610e03565b8161464e57506000610e03565b8160018114614664576002811461466e5761468a565b6001915050610e03565b60ff84111561467f5761467f61479f565b50506001821b610e03565b5060208310610133831016604e8410600b84101617156146ad575081810a610e03565b6146b783836145e5565b80600019048211156146cb576146cb61479f565b029392505050565b60008160001904831182151516156146ed576146ed61479f565b500290565b6000828210156147045761470461479f565b500390565b60005b8381101561472457818101518382015260200161470c565b838111156117ab5750506000910152565b600181811c9082168061474957607f821691505b6020821081141561476a57634e487b7160e01b600052602260045260246000fd5b50919050565b60006000198214156147845761478461479f565b5060010190565b60008261479a5761479a6147b5565b500690565b634e487b7160e01b600052601160045260246000fd5b634e487b7160e01b600052601260045260246000fd5b634e487b7160e01b600052604160045260246000fd5b6001600160a01b038116811461124d57600080fd5b801515811461124d57600080fd5b6001600160e01b03198116811461124d57600080fd5b6001600160401b038116811461124d57600080fdfea26469706673582212201464436f473fd14684536d66c468d8454222ca7f7cc78413fcad78b86beb34a864736f6c634300080400334f776e61626c653a2063616c6c6572206973206e6f7420746865206f776e6572",
  "devdoc": {
    "kind": "dev",
    "methods": {
      "approve(address,uint256)": {
        "details": "See {IERC721-approve}."
      },
      "balanceOf(address)": {
        "details": "See {IERC721-balanceOf}."
      },
      "estimateSendFee(uint16,bytes,uint256,bool,bytes)": {
        "details": "estimate send token `_tokenId` to (`_dstChainId`, `_toAddress`) _dstChainId - L0 defined chain id to send tokens too _toAddress - dynamic bytes array which contains the address to whom you are sending tokens to on the dstChain _tokenId - token Id to transfer _useZro - indicates to use zro to pay L0 fees _adapterParams - flexible bytes array to indicate messaging adapter services in L0"
      },
      "getApproved(uint256)": {
        "details": "See {IERC721-getApproved}."
      },
      "isApprovedForAll(address,address)": {
        "details": "See {IERC721-isApprovedForAll}."
      },
      "name()": {
        "details": "See {IERC721Metadata-name}."
      },
      "owner()": {
        "details": "Returns the address of the current owner."
      },
      "ownerOf(uint256)": {
        "details": "See {IERC721-ownerOf}."
      },
      "renounceOwnership()": {
        "details": "Leaves the contract without owner. It will not be possible to call `onlyOwner` functions anymore. Can only be called by the current owner. NOTE: Renouncing ownership will leave the contract without an owner, thereby removing any functionality that is only available to the owner."
      },
      "safeTransferFrom(address,address,uint256)": {
        "details": "See {IERC721-safeTransferFrom}."
      },
      "safeTransferFrom(address,address,uint256,bytes)": {
        "details": "See {IERC721-safeTransferFrom}."
      },
      "sendFrom(address,uint16,bytes,uint256,address,address,bytes)": {
        "details": "send token `_tokenId` to (`_dstChainId`, `_toAddress`) from `_from` `_toAddress` can be any size depending on the `dstChainId`. `_zroPaymentAddress` set to address(0x0) if not paying in ZRO (LayerZero Token) `_adapterParams` is a flexible bytes array to indicate messaging adapter services"
      },
      "setApprovalForAll(address,bool)": {
        "details": "See {IERC721-setApprovalForAll}."
      },
      "symbol()": {
        "details": "See {IERC721Metadata-symbol}."
      },
      "tokenURI(uint256)": {
        "details": "See {IERC721Metadata-tokenURI}."
      },
      "transferFrom(address,address,uint256)": {
        "details": "See {IERC721-transferFrom}."
      },
      "transferOwnership(address)": {
        "details": "Transfers ownership of the contract to a new account (`newOwner`). Can only be called by the current owner."
      }
    },
    "version": 1
  },
  "userdoc": {
    "kind": "user",
    "methods": {},
    "version": 1
  },
  "storageLayout": {
    "storage": [
      {
        "astId": 7,
        "contract": "contracts/PozzlenautsONFT.sol:PozzlenautsONFT",
        "label": "_owner",
        "offset": 0,
        "slot": "0",
        "type": "t_address"
      },
      {
        "astId": 2302,
        "contract": "contracts/PozzlenautsONFT.sol:PozzlenautsONFT",
        "label": "trustedRemoteLookup",
        "offset": 0,
        "slot": "1",
        "type": "t_mapping(t_uint16,t_bytes_storage)"
      },
      {
        "astId": 2592,
        "contract": "contracts/PozzlenautsONFT.sol:PozzlenautsONFT",
        "label": "failedMessages",
        "offset": 0,
        "slot": "2",
        "type": "t_mapping(t_uint16,t_mapping(t_bytes_memory_ptr,t_mapping(t_uint64,t_bytes32)))"
      },
      {
        "astId": 248,
        "contract": "contracts/PozzlenautsONFT.sol:PozzlenautsONFT",
        "label": "_name",
        "offset": 0,
        "slot": "3",
        "type": "t_string_storage"
      },
      {
        "astId": 250,
        "contract": "contracts/PozzlenautsONFT.sol:PozzlenautsONFT",
        "label": "_symbol",
        "offset": 0,
        "slot": "4",
        "type": "t_string_storage"
      },
      {
        "astId": 254,
        "contract": "contracts/PozzlenautsONFT.sol:PozzlenautsONFT",
        "label": "_owners",
        "offset": 0,
        "slot": "5",
        "type": "t_mapping(t_uint256,t_address)"
      },
      {
        "astId": 258,
        "contract": "contracts/PozzlenautsONFT.sol:PozzlenautsONFT",
        "label": "_balances",
        "offset": 0,
        "slot": "6",
        "type": "t_mapping(t_address,t_uint256)"
      },
      {
        "astId": 262,
        "contract": "contracts/PozzlenautsONFT.sol:PozzlenautsONFT",
        "label": "_tokenApprovals",
        "offset": 0,
        "slot": "7",
        "type": "t_mapping(t_uint256,t_address)"
      },
      {
        "astId": 268,
        "contract": "contracts/PozzlenautsONFT.sol:PozzlenautsONFT",
        "label": "_operatorApprovals",
        "offset": 0,
        "slot": "8",
        "type": "t_mapping(t_address,t_mapping(t_address,t_bool))"
      },
      {
        "astId": 1235,
        "contract": "contracts/PozzlenautsONFT.sol:PozzlenautsONFT",
        "label": "_tokenURIs",
        "offset": 0,
        "slot": "9",
        "type": "t_mapping(t_uint256,t_string_storage)"
      },
      {
        "astId": 115,
        "contract": "contracts/PozzlenautsONFT.sol:PozzlenautsONFT",
        "label": "_status",
        "offset": 0,
        "slot": "10",
        "type": "t_uint256"
      },
      {
        "astId": 3195,
        "contract": "contracts/PozzlenautsONFT.sol:PozzlenautsONFT",
        "label": "nextMintId",
        "offset": 0,
        "slot": "11",
        "type": "t_uint256"
      },
      {
        "astId": 3197,
        "contract": "contracts/PozzlenautsONFT.sol:PozzlenautsONFT",
        "label": "maxMintId",
        "offset": 0,
        "slot": "12",
        "type": "t_uint256"
      },
      {
        "astId": 3200,
        "contract": "contracts/PozzlenautsONFT.sol:PozzlenautsONFT",
        "label": "publicPrice",
        "offset": 0,
        "slot": "13",
        "type": "t_uint256"
      },
      {
        "astId": 3203,
        "contract": "contracts/PozzlenautsONFT.sol:PozzlenautsONFT",
        "label": "greenPrice",
        "offset": 0,
        "slot": "14",
        "type": "t_uint256"
      },
      {
        "astId": 3206,
        "contract": "contracts/PozzlenautsONFT.sol:PozzlenautsONFT",
        "label": "initPoz",
        "offset": 0,
        "slot": "15",
        "type": "t_uint256"
      },
      {
        "astId": 3210,
        "contract": "contracts/PozzlenautsONFT.sol:PozzlenautsONFT",
        "label": "publicDate",
        "offset": 0,
        "slot": "16",
        "type": "t_uint256"
      },
      {
        "astId": 3212,
        "contract": "contracts/PozzlenautsONFT.sol:PozzlenautsONFT",
        "label": "currentURI",
        "offset": 0,
        "slot": "17",
        "type": "t_string_storage"
      },
      {
        "astId": 3215,
        "contract": "contracts/PozzlenautsONFT.sol:PozzlenautsONFT",
        "label": "isPaused",
        "offset": 0,
        "slot": "18",
        "type": "t_bool"
      },
      {
        "astId": 3219,
        "contract": "contracts/PozzlenautsONFT.sol:PozzlenautsONFT",
        "label": "countMinted",
        "offset": 0,
        "slot": "19",
        "type": "t_mapping(t_address,t_uint256)"
      },
      {
        "astId": 3223,
        "contract": "contracts/PozzlenautsONFT.sol:PozzlenautsONFT",
        "label": "isGLClaimed",
        "offset": 0,
        "slot": "20",
        "type": "t_mapping(t_address,t_bool)"
      },
      {
        "astId": 3227,
        "contract": "contracts/PozzlenautsONFT.sol:PozzlenautsONFT",
        "label": "isFLClaimed",
        "offset": 0,
        "slot": "21",
        "type": "t_mapping(t_address,t_bool)"
      },
      {
        "astId": 3231,
        "contract": "contracts/PozzlenautsONFT.sol:PozzlenautsONFT",
        "label": "tokenBalance",
        "offset": 0,
        "slot": "22",
        "type": "t_mapping(t_uint256,t_uint256)"
      },
      {
        "astId": 3235,
        "contract": "contracts/PozzlenautsONFT.sol:PozzlenautsONFT",
        "label": "withdrawTimes",
        "offset": 0,
        "slot": "23",
        "type": "t_mapping(t_uint256,t_uint256)"
      },
      {
        "astId": 3239,
        "contract": "contracts/PozzlenautsONFT.sol:PozzlenautsONFT",
        "label": "tokenURIs",
        "offset": 0,
        "slot": "24",
        "type": "t_mapping(t_uint256,t_string_storage)"
      },
      {
        "astId": 3241,
        "contract": "contracts/PozzlenautsONFT.sol:PozzlenautsONFT",
        "label": "glMerkleRoot",
        "offset": 0,
        "slot": "25",
        "type": "t_bytes32"
      },
      {
        "astId": 3243,
        "contract": "contracts/PozzlenautsONFT.sol:PozzlenautsONFT",
        "label": "flMerkleRoot",
        "offset": 0,
        "slot": "26",
        "type": "t_bytes32"
      },
      {
        "astId": 3246,
        "contract": "contracts/PozzlenautsONFT.sol:PozzlenautsONFT",
        "label": "usdcToken",
        "offset": 0,
        "slot": "27",
        "type": "t_contract(IERC20Extented)3186"
      },
      {
        "astId": 3248,
        "contract": "contracts/PozzlenautsONFT.sol:PozzlenautsONFT",
        "label": "treasuryWallet",
        "offset": 0,
        "slot": "28",
        "type": "t_address"
      }
    ],
    "types": {
      "t_address": {
        "encoding": "inplace",
        "label": "address",
        "numberOfBytes": "20"
      },
      "t_bool": {
        "encoding": "inplace",
        "label": "bool",
        "numberOfBytes": "1"
      },
      "t_bytes32": {
        "encoding": "inplace",
        "label": "bytes32",
        "numberOfBytes": "32"
      },
      "t_bytes_memory_ptr": {
        "encoding": "bytes",
        "label": "bytes",
        "numberOfBytes": "32"
      },
      "t_bytes_storage": {
        "encoding": "bytes",
        "label": "bytes",
        "numberOfBytes": "32"
      },
      "t_contract(IERC20Extented)3186": {
        "encoding": "inplace",
        "label": "contract IERC20Extented",
        "numberOfBytes": "20"
      },
      "t_mapping(t_address,t_bool)": {
        "encoding": "mapping",
        "key": "t_address",
        "label": "mapping(address => bool)",
        "numberOfBytes": "32",
        "value": "t_bool"
      },
      "t_mapping(t_address,t_mapping(t_address,t_bool))": {
        "encoding": "mapping",
        "key": "t_address",
        "label": "mapping(address => mapping(address => bool))",
        "numberOfBytes": "32",
        "value": "t_mapping(t_address,t_bool)"
      },
      "t_mapping(t_address,t_uint256)": {
        "encoding": "mapping",
        "key": "t_address",
        "label": "mapping(address => uint256)",
        "numberOfBytes": "32",
        "value": "t_uint256"
      },
      "t_mapping(t_bytes_memory_ptr,t_mapping(t_uint64,t_bytes32))": {
        "encoding": "mapping",
        "key": "t_bytes_memory_ptr",
        "label": "mapping(bytes => mapping(uint64 => bytes32))",
        "numberOfBytes": "32",
        "value": "t_mapping(t_uint64,t_bytes32)"
      },
      "t_mapping(t_uint16,t_bytes_storage)": {
        "encoding": "mapping",
        "key": "t_uint16",
        "label": "mapping(uint16 => bytes)",
        "numberOfBytes": "32",
        "value": "t_bytes_storage"
      },
      "t_mapping(t_uint16,t_mapping(t_bytes_memory_ptr,t_mapping(t_uint64,t_bytes32)))": {
        "encoding": "mapping",
        "key": "t_uint16",
        "label": "mapping(uint16 => mapping(bytes => mapping(uint64 => bytes32)))",
        "numberOfBytes": "32",
        "value": "t_mapping(t_bytes_memory_ptr,t_mapping(t_uint64,t_bytes32))"
      },
      "t_mapping(t_uint256,t_address)": {
        "encoding": "mapping",
        "key": "t_uint256",
        "label": "mapping(uint256 => address)",
        "numberOfBytes": "32",
        "value": "t_address"
      },
      "t_mapping(t_uint256,t_string_storage)": {
        "encoding": "mapping",
        "key": "t_uint256",
        "label": "mapping(uint256 => string)",
        "numberOfBytes": "32",
        "value": "t_string_storage"
      },
      "t_mapping(t_uint256,t_uint256)": {
        "encoding": "mapping",
        "key": "t_uint256",
        "label": "mapping(uint256 => uint256)",
        "numberOfBytes": "32",
        "value": "t_uint256"
      },
      "t_mapping(t_uint64,t_bytes32)": {
        "encoding": "mapping",
        "key": "t_uint64",
        "label": "mapping(uint64 => bytes32)",
        "numberOfBytes": "32",
        "value": "t_bytes32"
      },
      "t_string_storage": {
        "encoding": "bytes",
        "label": "string",
        "numberOfBytes": "32"
      },
      "t_uint16": {
        "encoding": "inplace",
        "label": "uint16",
        "numberOfBytes": "2"
      },
      "t_uint256": {
        "encoding": "inplace",
        "label": "uint256",
        "numberOfBytes": "32"
      },
      "t_uint64": {
        "encoding": "inplace",
        "label": "uint64",
        "numberOfBytes": "8"
      }
    }
  }
}